:020000040800F2
:102C0000A8040020752D00085D3F00086D370008FE
:102C100000000000000000000000000000000000B4
:102C2000000000000000000000000000693F0008F4
:102C300000000000000000005F3F0008BD3F0008EA
:102C4000A12D0008A12D0008A12D0008A12D00082C
:102C5000A12D0008A12D0008A12D0008A12D00081C
:102C6000A12D0008A12D0008A12D0008A12D00080C
:102C7000A12D0008A12D0008A12D0008A12D0008FC
:102C8000A12D0008A12D0008A12D0008A12D0008EC
:102C9000A12D0008A12D0008A12D0008A12D0008DC
:102CA0007F400008A12D0008A12D0008A12D0008DB
:102CB000A12D0008A12D0008A12D0008A12D0008BC
:102CC000A12D0008A12D0008A12D0008A12D0008AC
:102CD000A12D0008A12D000800000000A12D000872
:102CE000A12D0008A12D0008A12D0008A12D00088C
:102CF000A12D0008A12D0008AB400008A12D00085F
:102D0000AD400008A12D0008A12D00080000000022
:102D1000000000000000000000000000A12D0008DD
:102D2000A12D0008A12D0008A12D0008A12D00084B
:102D3000A12D0008A12D0008A12D0008A12D00083B
:102D4000A12D0008A12D0008A12D0008A12D00082B
:102D5000A12D0008A12D0008A12D0008A12D00081B
:102D60000348854600F05AFC004800474F4A0008D7
:102D7000A80400200B4802680B480240120C920283
:102D80000A4940F2000001C1121F002AFBD1084885
:102D9000804708480047FEE7FEE7FEE7FEE7FEE75C
:102DA000FEE70000E0F7FF1F0000FFFF000000202B
:102DB000C53F0008612D0008002800DA4042704736
:102DC000F8B502464A40D40F42004B0052085B0857
:102DD0009A4202D20246084611464A0023D0C30D49
:102DE0004A00DDB2120EAD1A202D35DA4902012655
:102DF000490AF6058A19002C00D0524220214F1BA7
:102E00001146B9402A411018C20D9A4221D0002C17
:102E100017D0012D08DCDA05801AD20F8019D207ED
:102E2000DBB200F0B7FAF8BDDA05801A01234000E2
:102E30001B06C01880185A428018CA0F1043490058
:102E400007E04908C2071143DA05801A80194008D3
:102E5000801800F097FAF8BD61000122511A001B9A
:102E6000F7E70122D2075140AAE70122D2075040DA
:102E7000A6E7024670B54A40D30FDB0740002DD0CD
:102E80004A002AD0010E140E000212020919400A4B
:102E9000520A8418E50104465443000A120A2E041B
:102EA0005043A4194219200CC543AA18120C01253D
:102EB000AD03521C521912047F39240400D0521C55
:102EC000104301D44000491EC2B20C06C0092018AC
:102ED000401C4008802A02D003E0002070BD40085A
:102EE0004000002900DA0020184370BD70B502468A
:102EF0004A40D50F40004A00ED074008520800281C
:102F000014D0002A12D0C40DD30D41020120C005F7
:102F10005202490A520AE41A091812187D349142E1
:102F200001D3641C00E04900002C01DA002070BDD0
:102F30000023914201D3891A034340084900002825
:102F4000F7D100290AD0914202D10121C90705E039
:102F5000914201D2012101E00121C943E005C018DD
:102F6000401900F00FFA70BDF0B50746084658400A
:102F700087B0C00F049048000E4659004008490829
:102F8000BC1A884105D2384631461E4617460B46C4
:102F900002465800400810434CD0300D03904005C5
:102FA0005900400D490D0590401A0290402872DAF0
:102FB00018030121000B09050843019004980092B1
:102FC000002805D0019952420020884100920190CA
:102FD000029840210A1A0199009800F0B0F90546BC
:102FE0000C466B4607CB00F0BAF9C0197141039A41
:102FF0000E0D0023D71756401A467A40164344D088
:10300000049A002A2DD0029A012A039A15DC12058F
:10301000C01A914101263605001C7141D20F059E50
:10302000D2070093019202962A46234600F0F8F94F
:1030300007B0F0BD38463146FAE71605224A0F467A
:10304000B218C01AB74101210905001C4F410018F0
:103050007F41114618187941E20F10436D19644100
:1030600013E0E2076D0815436408C2071443039A8E
:1030700001261205C01A91413605001C7141CE0788
:10308000400830434908C01851412A46234600F001
:10309000BAF9CDE7FFE7049801224000C117121AE0
:1030A00000238B4104983146C417381AA141EEE73A
:1030B00030B40124E407634030BC55E730B4012448
:1030C000E407614030BC4FE70000E0FFF0B51FB4FB
:1030D00088B00B990998002448400999C00F49000D
:1030E00049080991C0070B990090490049080B91C4
:1030F00009990898A64608431CD00B990A980843DA
:1031000018D0099801244000420D4800410D09984B
:1031100024050003000B204309900B980003000BCB
:1031200020430B9050181C4940180022019014466F
:10313000104605E0002001460DB0F0BD032801DA7D
:10314000034600E003239C46C11A0AAE0AE05F0072
:1031500008ADED5B4F00F75B7D430027AA187C416B
:10316000491C5B1E6145F2DD410004AB5A5221044B
:10317000120C0A43240C401C0828DFDB0198029043
:103180000099704601910090059B049A0799069852
:1031900000F046F9D0E700000DFCFFFF0122D20746
:1031A000002800DB101A002900DB511A814201D8E7
:1031B00001207047002070470122D207002800DB61
:1031C000101A002900DB511A814201D301207047F7
:1031D000002070470122D207002800DB101A0029C6
:1031E00000DB511A814201D901207047002070474D
:1031F0000122D207002800DB101A002900DB511A37
:10320000814201D10120704700207047C217C10FD1
:10321000504010B54018CA079623002100F0BAF8B4
:1032200010BD00000EB5C217C10F5040CA074018AC
:103230000021054B0293019200910A460B4600F0D3
:10324000EFF803B000BD000033040000C20F4100DE
:1032500040020123400ADB05D207090EC0187F296E
:1032600001DA00207047962903DC9623591AC840DA
:1032700001E096398840002AF4D040427047C20FDE
:10328000D207400040080BD0C10D0723DB01C9184D
:1032900040020905400A1143C20840071143704724
:1032A000002001467047CB0FDB07490010B54908E5
:1032B00002460A4307D00A0D07240903E401090B5B
:1032C000121B002A01DC002010BDC900440F0C4372
:1032D000C100E018D205801800F054F810BDF0B518
:1032E0001FB40646002082B005464024019100909C
:1032F0001BE0019922460F46304600F0C0F9049ABF
:10330000059B801A994110D310461946224600F0B9
:1033100016F8361A8F410197224601200021009F9E
:1033200000F00DF838184D4100902046641E00282A
:10333000DFDC019B00982946324607B0F0BD10B58E
:10334000202A04DB0146203A9140002010BD914024
:1033500020239C1A0346E3401943904010BD10B54A
:10336000202A06DBCB170846203A1041C1170B4331
:1033700006E00B461341D0402024A21A9140084396
:10338000194610BD002904DA401C490001D140084B
:103390004000704770B40024050C05D110240004CF
:1033A00002D1002921D01124050E01D100020834D8
:1033B000050F01D10001241D850F01D18000A41C3F
:1033C000002801DB4000641C002908D020252E1BAA
:1033D0000D46F540A14000D00121294308430106D4
:1033E0001B1B000ADB1D02D5002070BC7047DB05EB
:1033F000181880180029F8DA401C4900F5D170BC73
:1034000040084000704710B5002B08DA0024401C2B
:10341000614192185B411A4301D14008400010BD40
:10342000F0B51FB482B005460C0003D0084604F086
:10343000E3FA02E004F0E0FA203002460090214670
:103440002846FFF77CFF049B059A04460F46184365
:103450001143084314D0184610431BD00098402154
:103460000A1A1846059900F00AF905460E46009A10
:1034700005990498FFF763FF084305D0012004E095
:103480002046394607B0F0BD0020C11705430E4362
:103490002C43374300990E986305401A7905E40AD6
:1034A00000220C43FD0A0A3002D500200146E9E75C
:1034B0000105101969410C9C0D9D00196941FFF728
:1034C000A2FFDFE7F0B50C465C4085B0E40FE407EF
:1034D00003944C00002664085900944649080246AB
:1034E0000296224321D062460A431ED06200570D45
:1034F0004A000E032303550D012402462C492405DE
:10350000781B1B0B360B4018234326436146009063
:103510001C46501AB44103D30098401C009002E0AE
:10352000921800985B41002803DA0020014605B09C
:10353000F0BD0020012109050746864611E06446DA
:103540001D46141BB54106D36546521BB341744654
:1035500007430C43A646CD07400849082843921864
:103560005B4105460D43EAD11046184313D060462F
:10357000194650407140084306D06046101AB341C6
:1035800006D20122002306E000220123DB0702E02D
:103590000122D2435310009874460105381C614142
:1035A000029C039D00196941FFF72DFFBFE7000052
:1035B000FD0300004A0009030123090B1B05194301
:1035C0000A4B10B5520D9A4202DA0020014610BD96
:1035D000064B34339A4203DC9A1A00F050F810BDBF
:1035E000034BD218FFF7ABFE10BD0000FF03000035
:1035F000CDFBFFFF10B5002904DB0124E4074042A6
:103600008C412146002B04DB1C460123DB07524280
:10361000A341994200D1904210BD0000064C012503
:10362000064E05E0E36807CC2B430C3C984710346A
:10363000B442F7D3FFF798FB4C8400086C84000871
:1036400070B50446002903D000202022012310E099
:10365000002801D00020C043C046C0460DE02546EA
:10366000D5408D4205D30D469540641B1D469540BF
:1036700040191546521E002DF1DC214670BD10B5D3
:10368000202A04DB0846203AD040002110BD0B461A
:10369000D340D0402024A21A91400843194610BDBF
:1036A00080B582B0014601A80170007898B1FFE7AB
:1036B00041F60000C4F2000003F0A4FE44F2000052
:1036C000C4F2010003F09EFE40F25D01C2F200016F
:1036D0000120087012E041F60000C4F2000003F07F
:1036E00088FE44F20000C4F2010003F082FE40F2C2
:1036F0005D01C2F2000100200870FFE702B080BD4A
:1037000083B0014602A8017001AA0021117000785F
:10371000009040B1FFE7009801280CD0FFE7009827
:10372000022810D017E040F2A100C2F20000407859
:1037300001A9087010E040F2A100C2F200008078F8
:1037400001A9087008E040F2A100C2F20000007870
:1037500001A9087000E0FFE701A8007803B07047F6
:1037600040F28400C2F2000000787047FFE7FEE7F5
:1037700080B586B004AA107003A801800021405EC5
:10378000002809D5FFE7002103A80190405EFFF75C
:1037900013FB01990880FFE7002103A8405E0A217E
:1037A00090FBF1F25143401A02A90091087002F017
:1037B000B6FE0098007803280FDBFFE702A8007828
:1037C00007280ADCFFE704A8007840F26901C2F28A
:1037D0000001097802F08FFE14E002A800780228A8
:1037E00006DCFFE704A80078002102F084FE08E070
:1037F00004A80078002102F07EFE05A901200870CF
:1038000004E0FFE705A900200870FFE705A800789D
:1038100006B080BDB0B59CB01BAA10801AA801806C
:103820001B9919A801801A9918AA0F92118017AA3A
:103830000021117016AB40F2E1320E921A8015AAE7
:103840000D92117014AA1170415E2220FFF790FFB3
:103850000D9B0E9902460F981A700088884208DB6B
:10386000FFE7232040F2E131FFF782FF14A908703F
:1038700015E018A800880A2807DCFFE723200021AC
:10388000FFF776FF14A9087008E0002118A8415E30
:103890002320FFF76DFF14A90870FFE7FFE7002062
:1038A00019A9085E0A2290FBF2F0088018A908887E
:1038B000B0FBF2F0088015A8007828B1FFE719984E
:1038C000401C19A90880FFE714A8007828B1FFE779
:1038D0001898401C18A90880FFE740F26200C2F265
:1038E00000000088002219A9895E88420ED1FFE7F6
:1038F00040F26000C2F20000008818A909888842DE
:1039000004D1FFE717A900200870FFE740F262002A
:10391000C2F200000088002219A9895E88420AD0FC
:10392000FFE7199840F26201C2F20001088017A96E
:1039300001200870FFE740F26000C2F2000000883A
:1039400018A9098888420AD0FFE7189840F2600158
:10395000C2F20001088017A901200870FFE70022C9
:1039600019A8835E0A210C9193FBF1F50C466C4378
:103970001B1B13AC2370805E90FBF1F090FBF1F306
:103980000A465A43801A12AA107018A80288B2FB7D
:10399000F1F40B466343D21A11AB1A700088B0FBE6
:1039A000F1F0B0FBF1F25143401A10A9087017A8CA
:1039B000007800B998E000200B9002F07FFE03F041
:1039C000F5FD0B9919A8405E632812DBFFE740F272
:1039D0006900C2F200000990027809200A900021D3
:1039E00002F0F2FD09990A980A78012102F0ECFD33
:1039F0004EE0002119A8405E002835D5FFE70021E0
:103A0000059119A80390405EFFF7D6F90599024683
:103A100003980A23049392FBF3F46343D21A13AB83
:103A200007931A70405EFFF7C7F9049A059990FB57
:103A3000F2F090FBF2F35A43821A12A80270007857
:103A400040F26902C2F200020692127802F0BCFD56
:103A50000699079800780A780121089102F0B4FDD0
:103A6000089802F02BFE12E012A8007840F26901DB
:103A7000C2F2000102910A78002102F0A5FD02992C
:103A800013A800780A78012102F09EFDFFE7FFE706
:103A90001AA800880A2811DCFFE740F26900C2F288
:103AA0000000019002780020022102F08DFD0198B3
:103AB00002780120032102F087FD12E010A80078AF
:103AC00040F26901C2F2000100910A78022102F07D
:103AD0007BFD009911A800780A78032102F074FD9B
:103AE000FFE702F01CFDFFE71CB0B0BD80B501F0A0
:103AF0002DFE00F041FD00F01DFE80BD80B588B0B8
:103B000007A902200870079806A9087005A9039163
:103B10000020087004AAFF21117002F00EFD039925
:103B200026200870FFE705A80078492829DCFFE770
:103B300005A80078422804D1FFE706A900200870F4
:103B400003E0079806A90870FFE705A80078069922
:103B50004900491CC9B200F069F8014604A8017087
:103B60000078012807D0FFE740F25201C2F20001BD
:103B70000120087057E0FFE70598401C05A9087070
:103B8000D1E705A901200870FFE705A800782428DF
:103B900029DCFFE705A800781E2808D1FFE705A863
:103BA0000078002100F042F804A9087015E005A88B
:103BB00000781F2808D1FFE705A80078002100F051
:103BC00035F804A9087007E005A80078FF2100F087
:103BD0002DF804A90870FFE7FFE7FFE70598401CF0
:103BE00005A90870D1E725200021029100F01EF8F8
:103BF0000146029804AA01921170012100F016F802
:103C00000199087000F0CFFE40F20400C2F20000FB
:103C10003A21405C02F0BAFC029840F25201C2F232
:103C200000010870FFE708B080BD000080B594B0C7
:103C300013AA107012A8017011A90020087010A911
:103C400008800FA9087045F20040C4F2000010215E
:103C500000F096FEFFE70FA8007800B15BE111A825
:103C600000780E90052800D945E10E998A0001A040
:103C70008018874600F00AB800F054B800F03BB94D
:103C800000F060B800F037B900F0ECB8FFE745F29B
:103C90000040C4F2000048F2000100F0C8FD0146F7
:103CA00000200D9079B1FFE710A8018840F2D07292
:103CB000012000230B9391420C9001DB0B980C9098
:103CC0000C980D90FFE70D98C00728B1FFE71098FA
:103CD000401C10A90880DAE710A8008840F2CF71D4
:103CE00088420DDCFFE745F20040C4F2000000F01E
:103CF00000FE10A90020088011A90120087010E022
:103D000010A90020088011A908700FA901200870CF
:103D100048F24330C0F6000040F28E1103F05CFE22
:103D2000FFE7F7E045F20040C4F2000078210022EE
:103D30000A9200F091FD0A9810A9088011A90320A9
:103D40000870E7E0FFE745F20040C4F200000121FF
:103D500000F06DFD01460020099079B9FFE710A839
:103D6000018840F2D072012000230793914208900D
:103D700001DB0798089008980990FFE70998C007A9
:103D800028B1FFE71098401C10A90880DBE710A8B5
:103D9000008840F2CF7188420CDCFFE713A801785D
:103DA00045F20040C4F2000000F0EBFC10A9002036
:103DB000088005E010A90020088011A90870FFE71D
:103DC000FFE745F20040C4F20000012100F02FFDA2
:103DD00001460020069079B9FFE710A8018840F25B
:103DE000D0720120002304939142059001DB0498D6
:103DF000059005980690FFE70698C00728B1FFE7F1
:103E00001098401C10A90880DBE710A8008840F239
:103E1000CF7188421FDCFFE712A8017845F200400D
:103E2000C4F2000000F0ADFC10A800210180008861
:103E300040F2CF71884207DCFFE710A9002008801C
:103E400011A90520087005E010A90020088011A91B
:103E50000870FFE705E010A90020088011A908708C
:103E6000FFE757E045F20040C4F2000000F04BFDD0
:103E7000FFE745F20040C4F20000202100F0D7FC2B
:103E800001460020039079B9FFE710A8018840F2AD
:103E9000D0720120002301939142029001DB01982E
:103EA000029002980390FFE70398C00728B1FFE74C
:103EB0001098401C10A90880DBE710A8008840F289
:103EC000CF71884210DCFFE710A90020088011A9FB
:103ED000012008700FA9087045F20040C4F20000EC
:103EE000202100F09AFC05E010A90020088011A90B
:103EF0000870FFE70EE011A9002008700FAA012149
:103F0000117010A9088048F21830C0F6000003F0C4
:103F100063FDFFE79FE611A8007814B080BD80B56F
:103F200082B000F01DF80190019858B1FFE7FF2022
:103F300002F03EFB019948F23240C0F6000003F067
:103F40004BFD09E0002002F033FB48F22140C0F6AF
:103F5000000003F041FDFFE702B080BD70477047ED
:103F600080B502F08AFD80BD704780B584B00290B4
:103F70000298401E000E18B1FFE7012003901AE0DE
:103F80000298401E4EF21401CEF20001086000209B
:103F90000190C043032100F0B8F801984EF21801D7
:103FA000CEF2000108604EF21002CEF200020721AC
:103FB00011600390FFE7039804B080BD80B500F066
:103FC00099F980BDB0B582B041F20001C4F202019E
:103FD0000868012210430860FFE741F20000C4F2C4
:103FE000020000688007002801D4FFE7F5E741F2EE
:103FF0000403C4F20203186803218843186041F2E5
:104000002C01C4F2020108684FF6FF72CFF6FE726F
:104010001040086041F20004C4F2020420684FF628
:10402000FF75CFF6F26528402060186840F20C0456
:10403000C8F6FF042040186018684FF6FF74C7F2F6
:1040400000742040186008680F23984308600868CF
:104050001040086041F23001C4F2020100200190DA
:10406000086041F20801C4F20201086003F044F85C
:1040700001990120C00600F07CFE02B0B0BD80B501
:1040800041F60000C4F20000012103F05FFA0128AC
:104090000AD1FFE741F60000C4F20000012103F05D
:1040A0004CFA03F042F8FFE780BD704780B54DF24F
:1040B0000000C4F20100012103F048FA012808D1F0
:1040C000FFE74DF20000C4F20100012103F035FAD0
:1040D000FFE780BD81B0014668460170002140566F
:1040E000002810D4FFE70021684641561F200A46E9
:1040F000024001209040490989004EF20012CEF2A0
:1041000000028850FFE701B0704770B582B00246E8
:1041100001A80270009100214056002819D4FFE741
:10412000002401A908570322D34318404EF200424D
:10413000CEF20002805809578C07E50EFF24AC40F0
:10414000A043009CA401E4B2AC4020431940885035
:104150001DE001A908780F24204008380322D3432A
:1041600018404EF61C52CEF20002805800254957E6
:104170008D07EE0EFF25B540A843009DAD01EDB2C1
:10418000B54028432140083919408850FFE702B064
:1041900070BD70B582B0024601A802700091002186
:1041A0004056002819D4FFE7002401A9085703222C
:1041B000D34318404EF20042CEF200028058095715
:1041C0008C07E50EFF24AC40A043009CA401E4B2A0
:1041D000AC402043194088501DE001A908780F2405
:1041E000204008380322D34318404EF61C52CEF22A
:1041F00000028058002549578D07EE0EFF25B54077
:10420000A843009DAD01EDB2B540284321400839D7
:1042100019408850FFE702B070BD80B588B040F209
:10422000125001F029FC40F2147001F025FC40F21C
:104230000040C4F60000029008220692114600F0E9
:104240002BF9029806991022049200F025F90298A1
:10425000069B022101910122039200F0BFF902980E
:10426000039A069B0021059100F0FFF9019902983D
:10427000039A049B00F0B2F90298039A049B0599F3
:1042800000F0F3F945F20000C4F20000079003F0DB
:104290008DFA0599079803F047FB0599079803F0F5
:1042A0001DFB0599079803F0F3FA0798E1214902ED
:1042B00003F0F8F90798042103F001FB0699079829
:1042C00003F023FB079803F0BCFA08B080BD81B06F
:1042D0000090009840F26401C2F200010860FFE71C
:1042E00040F26400C2F20000006808B1FFE7F7E79F
:1042F00001B0704740F26400C2F20000006840B1B3
:10430000FFE740F26401C2F200010868401E086045
:10431000FFE7704780B582B00190009101A8017855
:1043200045F20000C4F2000003F034FAFFE745F262
:104330000000C4F2000040F2077103F08BFA08B9E4
:10434000FFE7F4E7019802B080BD87B005AA1080AE
:1043500004A801704FF6FF70C0F20F000390002018
:10436000029043F20001C4F2000145F2555008608A
:10437000FFE743F20C00C4F200000068012108408E
:104380000290FFE70398411E03910020019029B19C
:10439000FFE70298411E88410190FFE70198C0079E
:1043A0000028E6D1FFE7029820B1FFE706A9002028
:1043B000087042E004A8007843F20401C4F200014E
:1043C00008604FF6FF70C0F20F000390FFE743F262
:1043D0000C00C4F200000068022108400290FFE7D0
:1043E0000398411E03910020009029B1FFE7029835
:1043F000411E88410090FFE70098C0070028E6D1E1
:10440000FFE7029820B1FFE706A90020087014E03A
:1044100005A8008840F6FF71084043F20801C4F285
:104420000001086043F20001C4F200014AF6AA202C
:10443000086006A901200870FFE706A8007807B009
:10444000704743F20001C4F200014AF6AA20086056
:10445000704743F20001C4F200014CF6CC40086002
:10446000704743F20001C4F2000100200860704769
:1044700043F20001C4F2000145F255500860704754
:1044800040F25200C2F200000078704740F25C0037
:10449000C2F200000078704786B005900491039244
:1044A0000598006A01900598406A009002A90020D2
:1044B0000880FFE702A8008807281DD8FFE702A8A8
:1044C00001880398C840C00780B1FFE702A80188AF
:1044D00089000F228A400199914301910499008833
:1044E00080008140019808430190FFE7FFE70298B0
:1044F000401C02A90880DDE702A908200880FFE728
:1045000002A800880F281FD8FFE702A80188039897
:10451000C840C00790B1FFE702A801888900203990
:104520000F228A40009991430091049900888000ED
:1045300020388140009808430090FFE7FFE7029889
:10454000401C02A90880DBE70198059908620098E1
:104550000599486206B0704782B0019000910098BA
:104560000199886202B0704782B001900091009872
:104570000199886102B0704780B588B040F2004070
:10458000C4F6000004900421019140F2001202924E
:10459000FFF782FF0199049840F200220792FFF78B
:1045A0007BFF029B0498022103910022069200F0F7
:1045B00015F8029B0498069A0121059100F055F820
:1045C00003990498069A079B00F008F80498059947
:1045D000069A079B00F049F808B080BD87B00690A6
:1045E0000591049203930698006801900698C068AC
:1045F000009002A900200880FFE702A800880F2889
:104600002BD8FFE702A801880398C840C007F0B183
:10461000FFE702A801884900032213468B40019955
:1046200099430191059B018849008B4001991943E9
:104630000191018849008A400099914300910499B1
:10464000008840008140009808430090FFE7FFE7A2
:104650000298401C02A90880CFE7019806990860DB
:1046600000980699C86007B0704710B586B00590ED
:1046700004A80170039202930078012806D1FFE795
:10468000029A059948681043486005E0029A059926
:10469000486890434860FFE705988068009001A94A
:1046A00000200880FFE701A800880F281DD8FFE739
:1046B00001A801880298C840C00780B1FFE701A89F
:1046C0000188490003228A4000999143009103998F
:1046D000008840008140009808430090FFE7FFE712
:1046E0000198401C01A90880DDE7009805998860C1
:1046F00006B010BD83B0029001910092019840F283
:10470000FF310840019000980199084302998860A0
:104710000299886848F200021043886003B070472D
:1047200081B0009000994868012252061043486009
:1047300001B0704780B582B000210091084601F0B9
:104740002CF8009B45F20040C4F2000001900322C7
:10475000114600F0E2F801981321322200F09CF893
:10476000009A01988221FFF7C5FF019800F04CF8EC
:1047700002B080BD81B000900098406AC0B201B024
:10478000704782B001900091684600780199886274
:1047900002B0704780B586B005900598049045F248
:1047A0000041C4F20001884210D0FFE7049845F6AA
:1047B0000001C4F20001884211D0FFE704984CF2D6
:1047C0000001C4F20001884212D01AE040F2154004
:1047D000039001F079F9039801F062F912E040F2D8
:1047E0001640029001F070F9029801F059F909E0C1
:1047F00040F21840019001F067F9019801F050F97A
:1048000000E0FFE706B080BD81B000900099086825
:1048100001221043086001B0704782B001900091FE
:10482000009A0199C8691043C86102B0704783B00B
:1048300001900091019880690099084204D0FFE737
:1048400002A90120087003E002A900200870FFE718
:1048500002A8007803B0704783B0029001910092E3
:10486000029948684FF60042CFF6FF721040486048
:10487000019A0299486810434860029948684FF6C7
:10488000FF32CFF6FF7210404860009A02994868E4
:104890001043486003B0704783B0029001910092CA
:1048A0000299086940F2FF02CFF6FF7210400861DA
:1048B00002990869FF22904308610198000280B2C2
:1048C0000190684600780090019A0098024302998E
:1048D00008691043086103B0704781B000900099E7
:1048E00048684FF6FF72CFF6FF621040486001B093
:1048F000704781B000900099486842F2000210436E
:10490000486001B0704781B000900099486844F257
:1049100000021043486001B0704784B003900291D8
:1049200001920093039908694FF6FF72C0F6FF7277
:1049300010400861039908694FF6FF72CFF60F72B5
:1049400010400861039908694FF6FF72CFF6F072C4
:104950001040086102980007029001980007000AC1
:10496000019000980007000B0090029A0198024302
:1049700000980243039908691043086104B0704726
:1049800082B001900091019948684FF6FF72CFF60E
:104990000072104048600098020401994868104372
:1049A000486002B0704740F26A01C2F20001032081
:1049B000487040F20400C2F20000007808707047AE
:1049C00080B584B003AA107002A8017001AA00216A
:1049D0001170007840B9FFE740F26900C2F20000B0
:1049E000007801A90870FFE703A800781D3800903F
:1049F000042827D800998A0001A080188746C0465D
:104A000000F008B800F01EB800F00AB800F00EB8C8
:104A100000F012B801A801781D2001F06CFD12E031
:104A200001A801781F2001F066FD0CE001A80178C3
:104A3000202001F060FD06E001A80178212001F0AE
:104A40005AFD00E0FFE701F06AFD04B080BD80B5CB
:104A500082B00020019042F60040C0F600001F2105
:104A6000C90641180120C00600F083F902F048FB96
:104A700040F60010009000F0CDFE009800F0DEFE41
:104A800040F2F410FFF723FCFFF7C7FBFFF72EF807
:104A90000B2041F2883102F05EFF0A20FFF717FC7D
:104AA000FFF73DFAFFF7F2FC48B1FFE745F200409F
:104AB000C4F20000FFF76EFEFFF718F8FFE7FFF7FC
:104AC0001DF802F05FF840F2F410FFF700FC40F22E
:104AD00053700421FFF739FC01280BD1FFE7FFF7E2
:104AE000C0FCFFF7B6FC48F2F020C0F6000002F070
:104AF00073FFFFE702F0D0F8014648F2FF20C0F64E
:104B0000000002F069FFFFE700F005F8FFF7B0FCD6
:104B1000FFF797FCF8E780B584B003A90020087080
:104B2000FEF7EEFD00B9C1E00020FEF7E9FD014609
:104B30004CF6CD40CCF6CC40484349F69911C1F62D
:104B40009911401843F23231C3F23331884200D90F
:104B5000ACE00020019001F08CF80198FEF7A0FD78
:104B600040F28000C2F2000040F27401C2F2000183
:104B700040F26C02C2F2000201F0FBFD40F27C0048
:104B8000C2F2000000683C281ED1FFE740F274002A
:104B9000C2F20000006840F27801C2F20001086031
:104BA00040F26C00C2F20000006840F27001C2F2F4
:104BB0000001086040F27C01C2F2000100200860A0
:104BC00003A901200870FFE740F27400C2F2000060
:104BD000006840F27801C2F200010968401A032817
:104BE0001CDCFFE740F26C00C2F20000006840F2FB
:104BF0007001C2F200010968401A1E280ED8FFE7B2
:104C000040F27800C2F20000006840F27401C2F283
:104C100000010968401A04281EDBFFE740F2740017
:104C2000C2F20000006840F27801C2F200010860A0
:104C300040F26C00C2F20000006840F27001C2F263
:104C40000001086040F27C01C2F20001002008600F
:104C500003A90120087007E040F27C01C2F20001C4
:104C60000868401C0860FFE703A8007870B1FFE700
:104C700040F27800C2F20000016840F27000C2F217
:104C800000000268012002F0B6FCFFE70120FEF7F9
:104C900007FD40F27400C2F20000006840F26C01AF
:104CA000C2F20001096801F064FCFFE70120FEF791
:104CB00027FDD8B3FFE70120FEF722FD01464CF6A1
:104CC000CD40CCF6CC40484349F69911C1F6991134
:104CD000401843F23231C3F23331884226D8FFE71D
:104CE000012000F0C6FF40F28000C2F20000007810
:104CF000D8B1FFE703A80078B8B1FFE72020012171
:104D00000091FFF75DFE00992120FFF759FE40F268
:104D10007400C2F20000016840F26C00C2F20000B0
:104D20000268002002F067FCFFE7FFE704B080BDE7
:104D300080B582B0014601A801700078012100F021
:104D400002F802B080BD80B584B00A46014603A8CF
:104D50000190017002A90A70002200928056097821
:104D6000FFF717FA009901984056FFF7B3F904B01E
:104D700080BD82B001900091019800994FF6807239
:104D8000C1F6FF72114008434EF60851CEF2000101
:104D90000860BFF34F8F02B07047000000B5A3B0AA
:104DA00022A9087000200290219020901F901E9050
:104DB0001D901C901B901A901990189017901690A7
:104DC0001590149013901290119010900F900E90D7
:104DD00040F20671C0F608110D9140F20121C0F2B7
:104DE00003410C910B900A9009910890079106904D
:104DF0000591049041F20400C4F2020000680C2105
:104E000008408008209041F22C00C4F202000068A3
:104E1000012149040840C00B1F9020981F990843A6
:104E2000219021980390042800D99DE003998A00DD
:104E300001A080188746C04600F008B800F00CB802
:104E400000F01AB800F00EB800F012B842F20040BC
:104E5000C0F2F4001B908DE041F20020C0F27A0015
:104E60001B9087E046F60040C0F2DC201B9081E0FA
:104E700047F600501B907DE041F20400C4F20200AE
:104E800001683F2292041140890C139100680121AE
:104E9000C9060840C00E129012988001139940185C
:104EA000139013980F2804D3FFE71398401C139016
:104EB0000BE013980F2803D1FFE71020139003E0B5
:104EC0001398801C1390FFE7FFE741F20400C4F23F
:104ED00002000068032109040840000C1190119899
:104EE000A0B9FFE741F22C00C4F2020000680F21D4
:104EF0000840401C1090109942F20040C0F2F400AB
:104F0000B0FBF1F1139848431B902CE01198012855
:104F100014D1FFE741F22C00C4F2020000680F2117
:104F20000840401C1090109941F20020C0F27A0015
:104F3000B0FBF1F1139848431B9013E041F22C00B1
:104F4000C4F2020000680F210840401C1090109924
:104F500046F60040C0F2DC20B0FBF1F11398484364
:104F60001B90FFE7FFE705E042F20040C0F2F400CB
:104F70001B90FFE741F20400C4F202000168C9B2CD
:104F800009090F910F9A0AA9895C0E911B990E9A33
:104F9000D1401A91016840F200721140090A0F9144
:104FA0000F9A08A9895C0E911A990E9AD14019910D
:104FB000006843F600010840C00A0F900F9906A848
:104FC000405C0E901A980E99C840189022A800785C
:104FD00001900D2800D9B5E301998A0001A080183D
:104FE0008746C04600F01AB800F01BB800F01CB8A5
:104FF00000F01DB800F01EB800F0FBB800F0E5BAF4
:1050000000F022BB00F05FBB00F040B900F093B9A4
:1050100000F0E6B900F02BBA00F07FBA1B981C90A4
:1050200091E31A981C908EE319981C908BE31898C2
:105030001C9088E341F23000C4F20200006840F2A4
:1050400000110840884206D0FFE746F60040C0F253
:10505000DC201790CAE041F20400C4F202000068AC
:1050600080B2800B1E9041F23000C4F20200006852
:10507000800F1D901E980090032800D9B4E000997D
:105080008A0001A08018874600F006B800F02EB80C
:1050900000F056B800F080B81D9820B9FFE71898C6
:1050A0004008179021E01D98012806D1FFE71898C5
:1050B0000A21B0FBF1F0179016E01D98022806D1E6
:1050C000FFE71A980321B0FBF1F017900BE01D9851
:1050D000032806D1FFE71A980B21B0FBF1F01790D7
:1050E00000E0FFE7FFE7FFE7FFE77EE01D9820B95C
:1050F000FFE718988008179021E01D98012806D135
:10510000FFE718980C21B0FBF1F0179016E01D98FE
:10511000022806D1FFE71A980521B0FBF1F017909D
:105120000BE01D98032806D1FFE71A980D21B0FB6C
:10513000F1F0179000E0FFE7FFE7FFE7FFE754E03B
:105140001D9830B9FFE718980621B0FBF1F01790D1
:1051500021E01D98012806D1FFE718980E21B0FB29
:10516000F1F0179016E01D98022806D1FFE71A9873
:105170000721B0FBF1F017900BE01D98032806D132
:10518000FFE71A980F21B0FBF1F0179000E0FFE75E
:10519000FFE7FFE7FFE728E01D9820B9FFE7189831
:1051A000C00817901FE01D98012804D1FFE7189848
:1051B0000009179016E01D98022806D1FFE71A98FB
:1051C0000921B0FBF1F017900BE01D98032806D1E0
:1051D000FFE71A981121B0FBF1F0179000E0FFE70C
:1051E000FFE7FFE7FFE700E0FFE7FFE717981C9006
:1051F000A9E241F23000C4F202000068800718B949
:10520000FFE7189816903EE041F23000C4F2020029
:10521000006803210840012803D1FFE71B9816907E
:1052200030E041F23000C4F202000068032108407F
:10523000022804D1FFE748F20000169021E041F275
:105240003000C4F20200006803210840032816D190
:10525000FFE741F23000C4F2020000680721890430
:105260000840800C0F900F9904A8405C0E900E9996
:1052700042F20040C0F2F400C840169000E0FFE7A0
:10528000FFE7FFE7FFE716981C905CE241F2300071
:10529000C4F2020000688003800F18B9FFE7199874
:1052A000169045E041F23000C4F20200006803218C
:1052B0000904084001210904884203D1FFE71B9833
:1052C000169034E041F23000C4F20200006803217D
:1052D0000904084001214904884204D1FFE748F24B
:1052E0000000169022E041F23000C4F20200006893
:1052F000032109040840884216D1FFE741F230003B
:10530000C4F202000068072189040840800C0F9055
:105310000F9904A8405C0E900E9942F20040C0F232
:10532000F400C840169000E0FFE7FFE7FFE7FFE763
:1053300016981C9007E241F23000C4F202000068A7
:10534000C004800F18B9FFE71998169045E041F2A4
:105350003000C4F20200006841F60001084040F647
:105360000001884203D1FFE71B98169034E041F218
:105370003000C4F20200006841F60001084041F22A
:105380000001884204D1FFE748F20000169022E0B5
:1053900041F23000C4F20200006841F6000108400A
:1053A000884216D1FFE741F23000C4F202000068E3
:1053B000072189040840800C0F900F9904A8405CD5
:1053C0000E900E9942F20040C0F2F400C8401690D0
:1053D00000E0FFE7FFE7FFE7FFE716981C90B2E168
:1053E00041F23000C4F202000068002018B9FFE763
:1053F0001998169038E041F23000C4F202000068BB
:10540000012018B9FFE71B9816902CE041F23000FC
:10541000C4F202000068012020B9FFE748F2000052
:1054200016901FE041F23000C4F202000068012033
:10543000B0B9FFE741F23000C4F202000068072172
:1054400089040840800C0F900F9904A8405C0E90CE
:105450000E9942F20040C0F2F400C840169000E0FD
:10546000FFE7FFE7FFE7FFE716981C906BE141F2CB
:105470003000C4F2020000684005800F18B9FFE751
:105480001998159046E041F23000C4F2020000681D
:1054900040F20061084040F20021884204D1FFE759
:1054A00047F60050159034E041F23000C4F202009B
:1054B000006840F20061084040F20041884204D197
:1054C000FFE748F20000159022E041F23000C4F2FC
:1054D0000200006840F200610840884216D1FFE7F0
:1054E00041F23000C4F2020000680721890408403C
:1054F000800C0F900F9904A8405C0E900E9942F218
:105500000040C0F2F400C840159000E0FFE7FFE75C
:10551000FFE7FFE715981C9015E141F23000C4F257
:10552000020000684002800F18B9FFE71998159033
:1055300048E041F23000C4F202000068032149054E
:10554000084040F20021884204D1FFE747F60050AE
:10555000159036E041F23000C4F2020000680321E9
:105560004905084040F20041884204D1FFE748F273
:105570000000159024E041F23000C4F202000068FF
:1055800003214905084040F20061884216D1FFE737
:1055900041F23000C4F2020000680721890408408B
:1055A000800C0F900F9904A8405C0E900E9942F267
:1055B0000040C0F2F400C840159000E0FFE7FFE7AC
:1055C000FFE7FFE715981C90BDE041F23000C4F200
:1055D000020000680007800F18B9FFE719981490BF
:1055E0002FE041F23000C4F2020000680C210840B4
:1055F000042803D1FFE71B98149021E041F230000A
:10560000C4F2020000680C210840082816D1FFE708
:1056100041F23000C4F2020000680721890408400A
:10562000800C0F900F9904A8405C0E900E9942F2E6
:105630000040C0F2F400C840149000E0FFE7FFE72C
:10564000FFE714981C907EE041F23000C4F20200A3
:1056500000688006800F18B9FFE7199814902FE0B2
:1056600041F23000C4F202000068302108400428F2
:1056700003D1FFE71B98149021E041F23000C4F2FF
:105680000200006830210840082816D1FFE741F2E7
:105690003000C4F202000068072189040840800C31
:1056A0000F900F9904A8405C0E900E9942F20040B2
:1056B000C0F2F400C840149000E0FFE7FFE7FFE706
:1056C00014981C903FE041F23000C4F202000068E0
:1056D0000006800F18B9FFE7199814902FE041F2E7
:1056E0003000C4F202000068C0210840042803D141
:1056F000FFE71B98149021E041F23000C4F2020051
:105700000068C0210840082816D1FFE741F23000A8
:10571000C4F202000068072189040840800C0F9041
:105720000F9904A8405C0E900E9942F20040C0F21E
:10573000F400C840149000E0FFE7FFE7FFE714988B
:105740001C9000E0FFE71C9823B000BD80B540F23C
:10575000125000F091F940F2157000F08DF980BD03
:1057600082B0694608800888800941F20002C4F2CC
:105770000202805809881F221140C840C00720B18A
:10578000FFE701A90120087003E001A900200870CB
:10579000FFE701A8007802B0704783B0024602A874
:1057A000027001910078009040B1FFE70098012855
:1057B00011D0FFE7009802281BD028E041F2300109
:1057C000C4F2020108680C2290430860019A08683C
:1057D000104308601CE041F23001C4F20201086885
:1057E00030229043086001988200086810430860E6
:1057F0000EE041F23001C4F202010868C022904379
:1058000008600198020108681043086000E0FFE7A3
:1058100003B0704781B001466846018000881F22AE
:105820000146114001238B40810941F20002C4F27C
:10583000020288581843885001B0704780B58CB078
:1058400001460BA8018000210A9109AA117008AA3B
:10585000117000880790002869D0FFE7079810288A
:1058600015D0FFE70798142800D186E0079818287C
:1058700000D1D4E0079840F6000188422DD0FFE720
:10588000079840F60011884200D19EE0EFE0FFE764
:1058900008A801780020069041B9FFE70A984FF662
:1058A000FF71401A411E88410690FFE70698C00725
:1058B00048B1FFE71120FFF753FF08A908700A98C5
:1058C000401C0A90E4E71120FFF74AFF20B1FFE7F0
:1058D00009A901200870FFE7CAE0FFE708A80178DE
:1058E0000020059051B9FFE70A984FF6FF71C0F20A
:1058F000FF31401A411E88410590FFE70598C00717
:1059000050B1FFE740F60100FFF72AFF08A9087031
:105910000A98401C0A90E1E740F60100FFF720FFDB
:1059200020B1FFE709A901200870FFE7A0E0FFE729
:1059300008A801780020049041B9FFE70A9840F2D6
:105940000051401A411E88410490FFE70498C007A7
:1059500048B1FFE70120FFF703FF08A908700A9884
:10596000401C0A90E4E70120FFF7FAFE20B1FFE7B0
:1059700009A901200870FFE77AE0FFE708A801788D
:105980000020039051B9FFE70A984FF6FF71C0F26B
:105990000F01401A411E88410390FFE70398C0079A
:1059A00048B1FFE71520FFF7DBFE08A908700A9849
:1059B000401C0A90E2E71520FFF7D2FE20B1FFE776
:1059C00009A901200870FFE752E0FFE708A8017865
:1059D0000020029051B9FFE70A984FF6FF71C0F21C
:1059E0000F01401A411E88410290FFE70298C0074C
:1059F00050B1FFE740F60110FFF7B2FE08A90870AA
:105A00000A98401C0A90E1E740F60110FFF7A8FE53
:105A100020B1FFE709A901200870FFE728E0FFE7B0
:105A200008A801780020019051B9FFE70A984FF6C5
:105A3000FF71C0F20F01401A411E88410190FFE73B
:105A40000198C00748B1FFE71920FFF789FE08A9B0
:105A500008700A98401C0A90E2E71920FFF780FEC0
:105A600020B1FFE709A901200870FFE700E0FFE788
:105A700009A800780CB080BD81B00146684601805D
:105A800000881F220146114001238B40810941F209
:105A90000002C4F2020288581843885001B07047CF
:105AA00081B001466846018000881F2201461140EE
:105AB00001238B40810941F20002C4F2020288589E
:105AC0009843885001B0704781B001466846018014
:105AD00000881F220146114001238B40810941F2B9
:105AE0000002C4F2020288581843885001B070477F
:105AF00010B588B0079006A801700592049300784D
:105B000040B1FFE740F28201C2F200010878401C78
:105B1000087007E040F28301C2F200010878401CDF
:105B20000870FFE7059808B9FFE7A0E0059800684E
:105B3000039003980021FDF75BFB08B1FFE796E0B7
:105B4000079800B97FE007994CF6CD40CCF6CC40E1
:105B500048430221C8414CF6CC41C0F6CC418842B2
:105B600071D8FFE740F28300C2F2000000780F28EE
:105B700019DBFFE740F28100C2F200000078012843
:105B800010DBFFE740F28100C2F200000078062837
:105B900008DCFFE740F28101C2F200010878401EF4
:105BA0000870FFE7FFE740F28200C2F200000078D1
:105BB0000F2819DBFFE740F28100C2F200000078F5
:105BC000002810D4FFE740F28100C2F20000007804
:105BD000052808DCFFE740F28101C2F200010878E5
:105BE000401C0870FFE7FFE70398FDF748FB0190B2
:105BF000029140F28100C2F200000078FDF712FB32
:105C000049F69A12C9F6991249F69913C3F6B9736F
:105C1000FDF75CFA019A029BFDF7A6F9FDF743FB3D
:105C20000390039840F25401C2F20001086040F270
:105C30008301C2F200010020087040F28201C2F22A
:105C400000010870FFE740F28100C2F20000007816
:105C5000012808DBFFE740F25400C2F200000068B0
:105C60000499086003E0039804990860FFE708B00E
:105C700010BD82B0014601A801700078009078B193
:105C8000FFE70098012812D0FFE70098022815D1FD
:105C9000FFE740F2A101C2F20001FF2008700EE010
:105CA00040F2A101C2F200010020487007E040F27A
:105CB000A101C2F200010020887000E0FFE702B0FD
:105CC000704780B586B0009101460098049103A901
:105CD000088002A8019002700498098800F012F868
:105CE00001990978884204D0FFE705A9FF200870D0
:105CF00003E005A900200870FFE7002105A8405631
:105D000006B080BD85B0049003A8018001A9FF20E2
:105D1000087002A900200880FFE702A8008803A9F4
:105D2000098888422FDAFFE7049802A90988415CB4
:105D30000198484001A90870694608200870FFE7EB
:105D400068460078012818DBFFE701A80078000604
:105D5000002807D5FFE7019840003121484001A9FC
:105D6000087004E00198400001A90870FFE7FFE710
:105D70000098401E69460870E2E7FFE70298401C61
:105D800002A90880C9E701A8007805B070470000A3
:105D900080B592B011AB187010910FA802800EAAB6
:105DA000002111700D910CAA1170018845F200407C
:105DB000C4F200000B90FEF7E3FD0B98FEF78DFD9B
:105DC0000B98FEF7ADFCFFE70CA8007800B113E1DB
:105DD0000EA800780A90052800D9FEE00A998A00EA
:105DE00001A080188746C04600F00AB800F04DB800
:105DF00000F0F3B800F090B800F0EFB800F0B1B8E0
:105E0000FFE745F20040C4F2000048F20001FEF74F
:105E10000EFD01460020099069B1FFE70D980109C8
:105E20000120002207927D29089001D3079808904D
:105E300008980990FFE70998C00720B1FFE70D987F
:105E4000401C0D90DDE70D9800097C280CD8FFE779
:105E500045F20040C4F20000FEF74BFD00200D901B
:105E60000EA9012008700FE000200D900EA9087007
:105E70000CA90120087048F28D30C0F6000040F2F5
:105E8000712101F0A9FDFFE7B5E0FFE745F2004011
:105E9000C4F200000121FEF7CAFC01460020069072
:105EA00069B9FFE70D9801090120002204927D29BC
:105EB000059001D30498059005980690FFE7069891
:105EC000C00720B1FFE70D98401C0D90DEE70D984C
:105ED00000097C280FD8FFE711A80078410045F29F
:105EE0000040C4F2000040F20042FEF7B5FC0EA9EB
:105EF000032008700FE000200D900EA908700CA977
:105F00000120087048F26330C0F6000040F27F21A3
:105F100001F062FDFFE76EE0FFE70FA80088D0B157
:105F2000FFE745F20040C4F200000421FEF77FFCC9
:105F300080B1FFE745F20040C4F20000FEF71AFC12
:105F4000109908701098401C10900F98401E0FA9CF
:105F50000880FFE7E1E70EA90520087000200D90FA
:105F600049E0FFE745F20040C4F200002021FEF7BF
:105F70005EFC01460020039069B9FFE70D98010916
:105F80000120002201927D29029001D30198029004
:105F900002980390FFE70398C00720B1FFE70D9830
:105FA000401C0D90DEE70D9800097C280FD8FFE714
:105FB00045F20040C4F200002021FEF72EFC002034
:105FC0000D900EA9012008700CA9087004E00020B3
:105FD0000D900EA90870FFE70DE00EA900200870D3
:105FE0000CAA012111700D9048F2F930C0F60000A2
:105FF00001F0F2FCFFE7E7E60EA8007812B080BDE2
:1060000080B594B013AB1870129111A8028010A93A
:10601000002008700FA908800EA9087045F2004002
:10602000C4F200001021FEF7ABFCFFE70EA80078D9
:1060300000B13FE110A800780D90052800D929E1B2
:106040000D998A0001A080188746C04600F00AB862
:1060500000F04CB800F01EB900F08BB800F01AB98F
:1060600000F0C9B8FFE745F20040C4F2000048F272
:106070000001FEF7DCFB014600200C9079B1FFE740
:106080000FA8018840F2D072012000230A939142A8
:106090000B9001DB0A980B900B980C90FFE70C9883
:1060A000C00728B1FFE70F98401C0FA90880DAE766
:1060B0000FA8008840F2CF7188420DDCFFE745F25F
:1060C0000040C4F20000FEF714FC0FA90020088075
:1060D00010A90120087008E00FA90020088010A96D
:1060E00008700EA901200870FFE7E2E0FFE745F223
:1060F0000040C4F200000121FEF799FB0146002098
:10610000099079B9FFE70FA8018840F2D072012009
:10611000002307939142089001DB079808900898A4
:106120000990FFE70998C00728B1FFE70F98401CC6
:106130000FA90880DBE70FA8008840F2CF718842E2
:1061400010DCFFE70FA80022028013A800784100AE
:1061500045F20040C4F20000FEF77EFB10A90320C8
:10616000087005E00FA90020088010A90870FFE75B
:106170009FE0FFE745F20040C4F200000121FEF776
:1061800056FB01460020069079B9FFE70FA8018869
:1061900040F2D0720120002304939142059001DB6C
:1061A0000498059005980690FFE70698C00728B167
:1061B000FFE70F98401C0FA90880DBE70FA80088B5
:1061C00040F2CF7188420FDCFFE70FA90020088062
:1061D0001298017845F20040C4F20000FEF7D1FAAF
:1061E00010A90520087005E00FA90020088010A95B
:1061F0000870FFE75DE045F20040C4F20000FEF7E2
:1062000082FBFFE745F20040C4F200002021FEF7C8
:106210000EFB01460020039079B9FFE70FA8018823
:1062200040F2D0720120002301939142029001DBE1
:106230000198029002980390FFE70398C00728B1E5
:10624000FFE70F98401C0FA90880DBE70FA8008824
:1062500040F2CF71884210DCFFE70FA900200880D0
:1062600010A9012008700EA9087045F20040C4F280
:1062700000002021FEF7D1FA0BE00FA900200880D2
:1062800010A9087048F2AB30C0F6000001F0A4FB82
:10629000FFE70EE010A9002008700EAA012111707E
:1062A0000FA9088048F21830C0F6000001F094FBF6
:1062B000FFE7BBE610A8007814B080BD80B588B0B9
:1062C00001920A460199034606A80370059204AAA2
:1062D000118003AB0293FF21197000780599128891
:1062E000FFF756FD0146029801700078012804D09E
:1062F000FFE707A9FF20087003E007A90020087046
:10630000FFE7002107A8405608B080BD80B588B0DF
:1063100000920A460099034606A80370059204AA53
:10632000118000780599128800F034F8014603A81E
:1063300001800021405E20B1FFE7039807A9088093
:1063400023E002A900200870FFE702A8007804A952
:106350000988884215DAFFE7059802AA11784900F2
:106360004018019001990878000249784018059971
:10637000127852008852FFE70298401C02A9087068
:10638000E3E707A900200880FFE7002107A8405E97
:1063900008B080BDB0B59AB0034618A80370179135
:1063A00016A90A80169A0321514312AA118002A944
:1063B0000191007801991288FFF780FF014615A826
:1063C00001800021405E28B1FFE719A94FF6FD705A
:1063D00008803DE014A90020088013A90880FFE789
:1063E00014A8008812A9098888422DDAFFE70198CD
:1063F00014A90988401882780221FFF762FC01463F
:1064000015A801800021405E28B1FFE719A94FF6C9
:10641000FC7008801CE0019914A80288895C179A16
:1064200013AC23885D1C2580D15401990088401845
:10643000407817992288531C23808854FFE71498CA
:10644000C01C14A90880CBE719A900200880FFE729
:10645000002119A8405E1AB0B0BD80B588B0019285
:106460000A460199034606A80370059204AA118002
:1064700003AB0293FF211970007805991288FFF78A
:10648000BFFD014602980170007801280CD0FFE79B
:1064900003A8017848F2E130C0F6000001F09CFA50
:1064A00007A9FF20087003E007A900200870FFE794
:1064B000002107A8405608B080BD80B582B0019089
:1064C000019947F6D500C2F2E96048430321C8416B
:1064D00048F63711C0F2410188420AD8FFE7019817
:1064E00040F2E831B0FBF1F000900098FDF7EFFECC
:1064F000FFE702B080BD80B584B00A46014603A81C
:10650000017002A90A7001AB0093FF221A70007893
:106510000978FDF78BFB0099087004B080BD80B549
:1065200082B001A90091FF20087025200021FDF70D
:106530007DFB0099087002B080BD80B586B005A9CA
:106540000870059840F28402C2F20002107004AA9A
:106550000192FF20107009780291039009B9029806
:10656000039003994A20FDF761FB0199087006B07A
:1065700080BD82B001900091009840F29801C2F273
:10658000000148600198086002B0704781B0014680
:10659000684601700078FF2801DDFFE706E00098FB
:1065A00040F26901C2F200010870FFE701B07047D4
:1065B00081B069460870009840F25C01C2F20001A7
:1065C000087001B07047000080B58AB008AB187041
:1065D00007A8017006A90A7000210591049103AA79
:1065E000117002AA117000780090032828D8009931
:1065F0008A0001A08018874600F006B800F00BB8AA
:1066000000F010B800F015B803A90120087002A925
:106610000720087015E003A90820087002A90E20C1
:1066200008700EE003A90F20087002A91520087059
:1066300007E003A91620087002A91C20087000E0DA
:10664000FFE706A80078FF2804DDFFE709A901207D
:1066500008702FE001A90020087003A800780590B9
:10666000FFE7059802A9097888421FDCFFE708A820
:10667000017840F24800C2F20000415C0498C14039
:106680000120014001A80170007838B1FFE705A89A
:10669000007806A90978FFF72EFFFFE70498401C51
:1066A0000490FFE70598401C0590DAE709A900204F
:1066B0000870FFE709A800780AB080BD80B582B0F5
:1066C000014601A80170007828B9FFE724200021C5
:1066D000FFF711FF08E040F26900C2F20000017804
:1066E0002420FFF708FFFFE7FFF719FF02B080BD86
:1066F00080B540F25801C2F2000144200122FFF7A8
:10670000ACFE80BD80B584B002900191FFF7F0FF30
:10671000014668460180008820B1FFE7009803A980
:1067200008800DE040F25A00C2F200000088FFF736
:10673000C4FE0298019900F0A7F903A90880FFE7B9
:10674000002103A8405E04B080BD80B586B00590EE
:10675000049103A902910020019008700598049902
:10676000FFF7D0FF0199024602980270405606B02A
:1067700080BD80B590B00F900E910D920CA9FF20B6
:10678000087000200B900A90099008900790FDF780
:106790007DFE00B16FE140F26800C2F200000078B7
:1067A00088B9FFE740F26801C2F2000103910120BD
:1067B000087006A805A9FFF7C8FF03990CAA107076
:1067C00000200870FFE700210CA8405600B151E1FD
:1067D0000698FCF71BFD40F20001C4F27A41FCF779
:1067E00085FB0B900B9808900B98049040F2880062
:1067F000C2F2000002900168491C0160006801902B
:10680000FCF7AEFF014601980BAA04ABFFF770F945
:1068100002980068C0082D2807D3FFE740F28801DE
:10682000C2F2000100200860FFE704980B900B986B
:1068300040F20001C4F2A001FCF7B0FC48B9FFE748
:106840000B9840F20001C4F20C21FCF7A7FC48B9F8
:10685000FFE70B9840F20001CBF68071FCF7B0FA2D
:106860000B9049E00B9840F20001C4F2A001FCF744
:1068700095FC48B9FFE70B9840F20001C4F22011E3
:10688000FCF78CFC90B9FFE70B9840F20001C4F2D2
:10689000F011FCF783FC90B9FFE70B9840F2000180
:1068A000C4F20C21FCF796FC48B9FFE70B984CF6B4
:1068B000CD41CBF68C71FCF783FA0B901BE00B9863
:1068C00040F20001C4F22011FCF768FC90B9FFE728
:1068D0000B9840F20001C4F2F011FCF77BFC48B9C0
:1068E000FFE70B9849F69A11CBF69971FCF768FA15
:1068F0000B90FFE7FFE7FFE70B9840F20001CCF2B7
:106900001011FCF759FC30B9FFE740F20000CCF25F
:1069100010100B90FFE70B9840F20001C4F24421E5
:10692000FCF73CFC30B9FFE740F20000C4F2442021
:106930000B90FFE70B9840F20001C4F22011FCF726
:1069400098FA0B900598FCF761FC40F20001C4F244
:106950007A41FCF7CBFA0A900A98FCF790FC47F6CC
:10696000E122CAF614624EF24713C3F6F073FCF745
:10697000ADFBFCF798FC0A900A987F21C905FCF74B
:106980001BFC20B9FFE77F20C0050A900FE00A98A2
:1069900040F20001C4F2C621FCF700FC30B9FFE769
:1069A00040F20000C4F2C6200A90FFE7FFE70A9811
:1069B00040F20001C4F22011FCF75BFA0A900B9838
:1069C000FCF744FC06900A98FCF740FC059040F266
:1069D0009000C2F2000000680699884210D1FFE7DB
:1069E00040F28C00C2F2000000680599884207D18D
:1069F000FFE740F29401C2F2000100200870FFE7B7
:106A000040F29000C2F200000068069988420DD062
:106A1000FFE7069840F29001C2F20001086040F2E0
:106A20009401C2F2000101200870FFE740F28C00DF
:106A3000C2F200000068059988420DD0FFE7059872
:106A400040F28C01C2F20001086040F29401C2F2EF
:106A5000000101200870FFE740F29400C2F200003C
:106A600000780F99087006980E99086005980D999E
:106A70000860FFE7FFE710B080BD80B582B001A8D5
:106A800000F028F802B080BD80B586B00590049172
:106A9000442003A901910222FFF738FC0199024624
:106AA00002A802800B8845F273525A43520B4AF6F1
:106AB000C873D21A059B1A604A8843F6095151439C
:106AC000490B41F27072891A049A11600021405EEC
:106AD00006B080BD80B586B0049003A989200870F7
:106AE00044200122FFF7B9FC014602A801800021E1
:106AF000405E002805D5FFE705A94FF6FE70088027
:106B000016E040F2E830FFF7D8FC442001A90091DC
:106B10000222FFF7FBFB009902AA108001980004F3
:106B20004988401804990860029805A90880FFE781
:106B3000002105A8405E06B080BD82B00190684685
:106B4000018000880199086102B0704781B000900F
:106B50000099086840221043086001B0704782B075
:106B6000019068460180019A51684EF6FF73CFF696
:106B7000FF731940516002880199486810434860CA
:106B800002B0704780B592B040F21150FEF774FF2A
:106B900040F21250FEF770FF40F20C60FEF76CFFFF
:106BA0000920C00606900521019120220892FDF7D8
:106BB00073FC0698089B0221029100220992FDF7BE
:106BC0000DFD0698089B099903220592FDF74DFDDE
:106BD00001990698C0220492FDF75EFC0299049B7D
:106BE0000698099AFDF7FAFC049B059A06980999FC
:106BF000FDF73BFD0199049A40F20040C4F6000005
:106C00000390FDF749FC02990398049B099AFDF74C
:106C1000E5FC0398049B059A0999FDF726FD069863
:106C2000099A012110230793FDF7D8FC059A0698CD
:106C3000079B0999FDF719FD06980799FDF794FC44
:106C400006980799FDF790FC089909980C9040F276
:106C500004120B9240F200720D92109040F200224A
:106C60000E9211910F9043F20000C4F201000A90BD
:106C70000BA900F0FEF80A9841F20001FFF76FFF40
:106C80000A980721FFF759FF0A9800F08EF90A9831
:106C9000FFF75CFF12B080BD80B588B00020079080
:106CA0000690059004900920C006039010210291DF
:106CB000FDF752FC9F2000F01FF8A520019000F086
:106CC0001BF801460198069100F016F8014601985C
:106CD000059100F011F80299024603980492FDF71D
:106CE00043FC0698000405990902084304990843E7
:106CF0000790079808B080BD80B582B001A90870E0
:106D0000FFE743F20000C4F20100022100F071F835
:106D100008B9FFE7F5E701A8017843F20000C4F2E3
:106D2000010000F03DF8FFE743F20000C4F201006B
:106D3000012100F05EF808B9FFE7F5E743F2000033
:106D4000C4F2010000F003F8C0B202B080BD84B00C
:106D50000290029843F60001C4F20001884205D176
:106D6000FFE70298C06803A9088015E00298406810
:106D700041F2000108400090009840B1FFE70298FE
:106D80000C3001900198007803A9088004E0029873
:106D9000C06803A90880FFE703A8008804B0704713
:106DA00084B0039002A80180039843F60001C4F266
:106DB0000001884205D1FFE702A800880399C86056
:106DC00015E00398406841F20001084000900098E7
:106DD00038B1FFE703980C300190029801990870D0
:106DE00004E002A800880399C860FFE7FFE704B049
:106DF000704783B001900091019880680099084223
:106E000004D0FFE702A9012008702EE0019843F2A8
:106E10000001C4F20101884223D1FFE7009870B954
:106E2000FFE701988068C004800F20B1FFE702A946
:106E30000020087019E002A90120087015E00098F0
:106E400070B9FFE7019880684005800F20B1FFE727
:106E500002A90020087008E002A90120087004E0DF
:106E6000FFE702A900200870FFE702A8007803B03E
:106E7000704786B004900391002000900498006849
:106E80000290029843F24001084002900498006882
:106E90000190019843F64001084001900498406831
:106EA000009000984FF2FF0108400090049843F6CC
:106EB0000001C4F2000188423DD1FFE70398016858
:106EC0000298084302900398416802980843029090
:106ED0000398C168029808430290039801690298D8
:106EE000084302900398416902980843029003986E
:106EF00081690298084302900398806840F200710B
:106F000088420BD0FFE70398806840F60071884202
:106F100004D0FFE705A90020087042E003988168CB
:106F200040F600000140029808430290FFE70298F3
:106F30000499086029E003980168019808430190CA
:106F4000039841680198084301900398C16801982B
:106F50000843019003980169019808430190039840
:106F60004169019808430190039881690198084399
:106F7000019001980499086003988168009808437B
:106F80000090009804994860FFE70499C8694FF29F
:106F9000FF72CFF6FF721040C86105A9012008708A
:106FA000FFE705A8007806B0704781B0009000990F
:106FB0008022885804231843885001B0704785B058
:106FC00000200490039041F20002C4F20202116812
:106FD00001231B04194311600290FFE70298400B44
:106FE00028B9FFE7FFE70298401C0290F6E7FFE7A9
:106FF0000498401C049041F20000C4F202000068B2
:107000000121490408400390FFE703990020019003
:1070100041B9FFE704984FF6FF71401A411E8841BD
:107020000190FFE70198C0070028E1D1FFE741F296
:107030000000C4F2020000688003002802D4FFE7C9
:10704000FFE7FEE742F20001C4F2020108680222F3
:10705000104305229043086041F20401C4F202018A
:1070600000910868086008680860086840F20042FB
:107070001043086041F22C02C4F2020210680F2390
:107080009843106008684FF6FF72C7F60072104010
:1070900008600868192212041043086041F20001D8
:1070A000C4F2020108680122120610430860FFE7DB
:1070B00041F20000C4F2020000688001002801D4FF
:1070C000FFE7F5E741F20401C4F202010868032278
:1070D000904308600868022210430860FFE741F20D
:1070E0000400C4F2020000680C210840082801D006
:1070F000FFE7F4E705B0704780B5FFF760FF80BD9C
:1071000080B540F24400C2F20000006840F2E8316D
:10711000B0FBF1F0FCF729FF10B1FFE7FFE7FEE756
:107120000021C843FCF7F1FF80BD80B540F2A0000C
:10713000C2F200000178491C01700078022810D0CA
:10714000FFE740F2A000C2F200000078022838DB1E
:10715000FFE740F2A000C2F200000078C00780BB49
:10716000FFE7FDF793F940B9FFE740F2A101C2F252
:1071700000014878401C4870FFE7FDF781F940B9ED
:10718000FFE740F2A101C2F200018878401C88703C
:10719000FFE740F2A100C2F2000000780E2808DCF0
:1071A000FFE740F2A101C2F200010878401C08701C
:1071B000FFE740F2A401C2F200010878401C087009
:1071C000FFE740F2A000C2F20000007803281ED0C2
:1071D000FFE740F2A000C2F20000007803281EDBA7
:1071E000FFE740F2A000C2F2000001784AF6AB20AF
:1071F000CAF6AA2048434AF6AA21C2F6AA21401894
:1072000045F25451C5F25551884208D8FFE740F283
:10721000A501C2F200010878401C0870FFE740F2A7
:10722000A000C2F2000000783C2807DBFFE740F234
:10723000A001C2F2000100200870FFE780BD80B508
:107240008CB00B900AA8018009920088FEF714FC0C
:107250000B9800F030F801A800F095F90020FDF738
:107260009DFD41F20021C0F27A01884205D1FFE77D
:1072700001A940F21F30088004E001A941F6FF0097
:107280000880FFE701A9002048808880099A521EE3
:107290000392C8800B9800F0BEF80B980121009172
:1072A00000F04BF900990B9800F03DF90B9800F0B5
:1072B000A9F80CB080BD80B58CB00B900B980A90EB
:1072C00001218907884249D0FFE70A9840F200412E
:1072D000C4F2000188424AD0FFE70A9841F2000157
:1072E000C4F2000188424BD0FFE70A9841F2004106
:1072F000C4F2000188424CD0FFE70A9841F6000131
:10730000C4F20001884256D0FFE70A9842F60041D5
:10731000C4F20101884218D0FFE70A9844F2000144
:10732000C4F2010188424FD0FFE70A9844F60041B9
:10733000C4F20101884235D0FFE70A984DF20001FE
:10734000C4F20101884248D050E040F20A3009906E
:10735000FEF7BAFB0998FEF7A3FB48E040F20040B5
:107360000890FEF7B1FB0898FEF79AFB3FE040F269
:1073700001400790FEF7A8FB0798FEF791FB36E067
:1073800040F204400690FEF79FFB0698FEF788FB4C
:107390002DE040F205400590FEF796FB0598FEF7BC
:1073A0007FFB24E040F20B300490FEF78DFB049845
:1073B000FEF776FB1BE040F208400390FEF784FBEB
:1073C0000398FEF76DFB12E040F210300290FEF7DA
:1073D0007BFB0298FEF764FB09E040F2113001905C
:1073E000FEF772FB0198FEF75BFB00E0FFE70CB0D5
:1073F00080BD81B000900099086801229043086028
:1074000001B0704781B000900099086801221043D4
:10741000086001B0704782B0019000910098008828
:1074200001998862019842F60041C4F20101884244
:1074300012D1FFE701990868702290430860009814
:107440004288019908681043086000988288019971
:10745000086810430860FFE7019801218907884206
:1074600008D0FFE7019840F20041C4F200018842D1
:1074700012D1FFE7019908687022904308600098D4
:107480004288019908681043086000988288019931
:10749000086810430860FFE7009880680199C86297
:1074A000019841F20001C4F20001884208D1FFE7CF
:1074B000019841F20041C4F2000188420FD0FFE779
:1074C000019908684FF6FF42CFF6FF72104008603E
:1074D0000098C2880199086810430860FFE7019886
:1074E00042F60041C4F20101884210D0FFE7019842
:1074F00044F20001C4F20101884208D0FFE701987C
:107500004DF20001C4F20101884205D1FFE7009865
:10751000808901990863FFE70199486901221043B6
:10752000486102B0704782B001900091009A0199C1
:10753000C8681043C86002B0704782B001900091E3
:107540000098C0430199086102B0704784B002906E
:1075500001910298C0680199084000900298006962
:107560000199084207D0FFE7009820B1FFE703A97F
:107570000120087003E003A900200870FFE703A8BA
:10758000007804B0704781B0009000990020088016
:107590000099488000998880009A4FF6FF719160A9
:1075A0000099C8800099888101B0704780B582B089
:1075B00001A9002008706A46FF20107001200870A1
:1075C000FFE701A800781C280DDCFFE701A8007880
:1075D0000021FCF72BFB69460870FFE70198401C6F
:1075E00001A90870EDE725200021FCF71FFB694683
:1075F000087002B080BD80B588B0034607A803704C
:10760000069105920078049040B1FFE704980128A4
:1076100024D0FFE70498022821D040E0FCF730FF97
:10762000D8B9FFE740F26800C2F20000007898B9CC
:10763000FFE740F26801C2F20001029101200870E8
:107640000021039106A8405E05A90988FCF7E2F82D
:10765000029903980870FFE7FFE721E020E0FCF7BC
:107660000FFFD8B9FFE740F26800C2F200000078CF
:1076700098B9FFE740F26801C2F2000100910120D1
:1076800008700021019106A8405E05A90988FCF751
:10769000C1F8009901980870FFE7FFE700E0FFE7F5
:1076A00008B080BD80B588B0079006910020059095
:1076B0000490039002900798019044F20041C4F2B4
:1076C000000188421DD0FFE7019844F60041C4F252
:1076D000000188421AD0FFE7019845F20001C4F288
:1076E0000001884217D0FFE7019843F60001C4F279
:1076F0000101884214D1FFE70520FDF74FFB0590FB
:107700000FE00920FDF74AFB05900AE00220FDF793
:1077100045FB059005E00220FDF740FB059000E0E9
:10772000FFE7079800680004002819D5FFE70598CF
:10773000400006994A088018B0FBF1F002900298C8
:107740004FF6F0710840049002980007400F039034
:1077500004A8008803A9098808430799C86017E0AE
:10776000059806994A088018B0FBF1F0029002983B
:107770004FF6F0710840049002980F2108400390E2
:1077800004A8008803A9098808430799C860FFE78F
:1077900008B080BD82B0019068460180008840F248
:1077A000FF1108400199886202B0704780B586B029
:1077B00005900598049044F20041C4F2000188420B
:1077C00021D0FFE7049844F60041C4F2000188424A
:1077D00022D0FFE7049845F20001C4F2000188427C
:1077E00023D0FFE7049843F60001C4F20101884268
:1077F00024D1FFE740F20E300390FEF765F90398BD
:10780000FEF74EF91BE040F211400290FEF75CF9E2
:107810000298FEF745F912E040F213400190FEF79E
:1078200053F90198FEF73CF909E040F2144000904A
:10783000FEF74AF90098FEF733F900E0FFE706B0DB
:1078400080BD81B000900099086801221043086053
:1078500001B0704784B0009101460098029101A9DF
:10786000088002980A889209805809881F221140CE
:10787000C840C00720B1FFE703A90120087003E05A
:1078800003A900200870FFE703A8007804B0704740
:1078900082B001900091019908680122904308602C
:1078A000019908684FF6FF12CFF6FF72104008608A
:1078B000009A019908681043086002B0704782B0CE
:1078C0000190009101990868042290430860009A91
:1078D000019908681043086002B0704782B00190B7
:1078E0000091019908680122904308600199486855
:1078F0004CF6FF72CFF6FF7210404860009A019973
:1079000048681043486002B0704782B0019000910F
:1079100001990868082290430860009A0199086854
:107920001043086002B0704782B001900091019945
:107930000868012290430860019908684EF6FF72BA
:10794000CFF6FF7210400860009A01990868104352
:10795000086002B0704780B584B0039002A801802F
:10796000039801900B2808D0FFE701980E2812D049
:10797000FFE7019828281CD029E002A8028841F6D8
:107980000000C4F2000040F20871FFF758FC182014
:10799000FDF7CEF91CE002A8028841F60000C4F20F
:1079A000000040F20871FFF74AFC2E20FDF7C0F9F5
:1079B0000EE002A802884DF20000C4F2010040F27D
:1079C0001161FFF73CFC3020FDF7B2F900E0FFE762
:1079D000002004B080BD00000FB410B503A9044B13
:1079E000044A029800F0E8F810BC08BC04B018473C
:1079F00015430008000000202021020C01D01021B6
:107A00001046020A01D010460839020901D010467A
:107A1000091F820801D01046891E420801D0881E25
:107A20007047081A704702E008C8121F08C1002AF0
:107A3000FAD170477047002001E001C1121F002AEF
:107A4000FBD17047F0B51FB486B00998089A030DB2
:107A50000021024314D05148514A181850430514CC
:107A60001198012810981AD0281A401C00264D4F52
:107A70004D49009601910490002812DA444211E029
:107A80001198012449A3012801D11098C1430698F7
:107A9000119A84600360C26041600BB0F0BD404247
:107AA000E4E70446210500203F4A001C51410391B0
:107AB000029012E0E00707D032463B460199009859
:107AC000FBF704FB0191009032463B4610461946F5
:107AD000FBF7FCFA06460F466410002CEAD1049826
:107AE000039B0028029A0999089806DAFBF7EEFA38
:107AF000019B009AFBF7EAFA05E0FBF7E3FC019B28
:107B0000009AFBF7DFFC04460E460022284BFBF7E9
:107B100071FD03D80020C043014607E00022254B39
:107B200020463146FBF720FAFBF744FD102409E01C
:107B3000002C0ADB0A220023FBF7D1FB079B303223
:107B40001A55641E02460A43F2D11122641C079B97
:107B5000121B1C19119B012B03D0012308430ED1CA
:107B60000AE0084304D0112010900020119077E71C
:107B70001098151A6D1E0BE01098824202DD00234A
:107B80006D1C03E0824201DA00236D1E002BEED053
:107B9000069811998260C16030C07EE701FCFFFF4A
:107BA000104D0000000014400000F03F30000000C5
:107BB0000000F0430000E03FFFB597B00646002507
:107BC00018E2252877D100242746FD49049400E0D7
:107BD0000443761C32780120203A90400842F7D1C5
:107BE00030782A280ED0022230780146303909290F
:107BF00016D804990A235943303940181443761C87
:107C00000490F1E7189802C804911890002904DA4A
:107C10000120400304434842049002200443761CA0
:107C200030782E2814D1042004437078761C2A283A
:107C300009D11898761C80C8189009E00A214F4392
:107C4000303FC719761C3078014630390929F5D9FB
:107C500030786C2810D006DC4C281AD068280ED05A
:107C60006A2817D104E0742813D07A2812D110E0C2
:107C70000120400504430CE00121090501E0032136
:107C800009050C437178814203D1012000052418B5
:107C9000761C761C3078119066280BD013DC58289F
:107CA0007DD009DC00287BD04528F6D04628F4D0CA
:107CB00047281AD1A5E118E0632835D0642870D090
:107CC000652812D19DE170286CD008DC6728F1D0BE
:107CD00069287BD06E280DD06F2806D1BAE07328B2
:107CE0002ED0752871D0782859D01A9A19999047B2
:107CF0006D1C7EE16002400F022809D003280DD0E0
:107D00000428189801680DD00D60001D189070E1CE
:107D10001898EA1701680D604A60F6E7189801683C
:107D20000D80F2E70D70F0E718986A46017811723D
:107D3000001D18900020507202A80090012005E05C
:107D4000189802C8189000200091C04361070DD513
:107D5000002101E00199491C0191B94212DA8142E6
:107D6000F8DB009A515C0029F4D10BE0002101E01E
:107D70000199491C01918142FADB019A0099895CC1
:107D80000029F5D1019904981A9B471A21463846D3
:107D9000199A00F097FA0199401945180BE04FE045
:107DA0002CE113E04EE0009800990078491C009106
:107DB0001A9A199990470198401E0190401CF2D1DF
:107DC000214638461A9B199A10E137E00A20002113
:107DD000009001916002410F022907D0189A01CA50
:107DE0001892C2179446032908D00AE01898C01DBB
:107DF000C108C90005C91891944607E000B2C2172E
:107E00009446042902D140B2C1178C460022614633
:107E1000944506DA0A460021404291418C462D21C4
:107E200002E0210504D52B216A461173012103E0EC
:107E3000E10701D02021F7E7029155E00A200AE08E
:107E4000102008E01020009000210420044301913C
:107E5000082703E008200021019100906002410FF3
:107E6000022907D0189A01CA1892002294460329C1
:107E700008D008E01898C01DC108C90005C91891AC
:107E8000944603E080B2042900D1C0B200210291DF
:107E9000210729D51199702906D0009A1021019B3C
:107EA0004A401A4305D00EE040216A461173012171
:107EB00008E06146014306D030216A4611731199EA
:107EC000517302210291009A0821019B4A401A43F2
:107ED0000AD16146014301D1610705D530216A46C7
:107EE000117301217F1E02911199582904D035A1E7
:107EF0000E910DA90D910DE037A1F9E76146019BA7
:107F0000009AFBF7ECF90E9B8C469B5C0D9A521E77
:107F10000D92137061460143F0D10D9805A9081A1E
:107F200020300190600703D501200004844300E065
:107F300001270198874201DD381A00E000200199ED
:107F400000904118029809180498401A0490E00320
:107F500006D421461A9B199A049800F0B3F94519E2
:107F6000002706E003A81A9AC05D199990476D1C76
:107F70007F1C02988742F5DBE0030CD521461A9B53
:107F8000199A049800F09EF9451904E01A9A3020D5
:107F9000199990476D1C0099481E00900029F5DC46
:107FA00008E00D980D990078491C0D911A9A1999BD
:107FB00090476D1C0199481E01900029F1DC63E196
:107FC00009280100303132333435363738396162AF
:107FD0006364656600000000303132333435363773
:107FE00038394142434445460000000000F05AF948
:107FF0004519761C3078002800D0E2E528461BB0F1
:10800000F0BD600700D406271898C01DC108C9003C
:1080100048680A680831C30FDB071891190001D0BE
:108020009CA108E0210501D59BA104E0E10701D056
:108030009AA100E09AA1430011985B08109165286D
:108040000CD006DC452809D046281DD0472841D150
:1080500041E0662818D067283CD13CE00021112F70
:1080600001DB112000E0781C0191009008A911A803
:10807000FFF7E8FC139905910021119A15927F1CD6
:1080800012980197009150E00120C0070390012051
:10809000019008A9009711A8FFF7D4FC139A14992E
:1080A00005920022119B009212981593059A019255
:1080B000002901D0104602E0791C40180190381ABE
:1080C00001D5019804E04042401E0090781C0190C8
:1080D000C01B029043E0012F00DA01270021112F7D
:1080E00001DD112000E038460191009008A911A897
:1080F000FFF7A8FC13990591119A00211298159287
:108100000091019721070CD40599B94201DB01992F
:1081100000E00191012904DD159A491E515C3029C6
:1081200006D0B84201DA011D05DA0121029115E0FD
:108130000199491EEDE7002805DC009941180091DE
:108140000199091A03E0019A411C914200DD019155
:108150000099401A401C02900120C007039020079C
:1081600006D402990198814202DB0020C0430290AC
:1081700000206946C87707AF012103980337C90774
:10818000884224D0022011902B20129003980028BE
:108190000CDA404203902D20129007E00A21039848
:1081A000FBF74EFA30317F1E039039701199481E4B
:1081B00011900029F2DC03980028EFD1791E129863
:1081C00008703078202108404530BF1E387006A85E
:1081D000C01BC01D039010980078002800D001201B
:1081E000019941180298C0170918039809180498B2
:1081F000401A401E0490E00306D421461A9B199AA7
:10820000049800F05FF8451910980078002803D012
:108210001A9A199990476D1CE00324D521461A9BA0
:10822000199A049800F04EF845191CE000980028AF
:1082300007DB00990598884203DD1598405C199981
:1082400001E0199930201A9A904700986D1C401C43
:1082500000900298401E0290002804D11A9A2E2005
:10826000199990476D1C0199481E01900029DDDC89
:1082700005E038781A9A7F1C199990476D1C03996C
:10828000481E03900029F4DC21461A9B199A049891
:10829000ACE600002D0000002B00000020000000D4
:1082A00000000000F8B5044600251E461746880465
:1082B00004D405E039462020B0476D1C641EF9D572
:1082C0002846F8BDFFB50446002581B01E46C80308
:1082D00001D5302700E02027880404D505E0384682
:1082E0000399B0476D1C641EF9D5284605B0F0BD52
:1082F00066776467745F656E61626C650D0A007312
:1083000070695F666C6173685F726561645F696400
:108310003A307825780D0A00693263206D617374F4
:1083200065722073656E6473207374617274207358
:1083300069676E616C20696E20205752495445214F
:108340000D0A0069326320627573206973206275BB
:10835000737920696E2020575249544521202564A5
:108360000D0A0069326320627573206973204932F7
:10837000435F53454E445F41444452455353207438
:10838000696D656F75743A2564210D0A0069326361
:1083900020627573206973206275737920696E207D
:1083A000726561645F2564210D0A00693263206D86
:1083B00061737465722073656E64732073746F707B
:1083C000207369676E616C2074696D656F757420C8
:1083D000696E2020777269746542797465210D0A8F
:1083E000006932635F57726974654279746520462B
:1083F00061696C3A25640D0A00693263206D61730E
:108400007465722073656E64732073746172742076
:108410007369676E616C20696E2072656164210A00
:1084200000496E69745F53485434582C204F4B0DEB
:108430000A00496E69745F53485434582C204661D1
:10844000696C65643A25640D0A00000070840008B8
:108450000000002060000000267A0008D084000898
:108460006000002048040000367A00080000000088
:1084700000000000000102030405060708090B0DB7
:108480000F1113161A1C1D1F2225282E34383C40AC
:1084900044484B4F555A5F64696D72777D80888D73
:1084A000949AA0A7ACB0B9BFC6CBCFD6E1E9EDF1A5
:1084B000F6FAFEFF0090D0033F065B4F666D7D0726
:1084C0007F6FFF00CDCCC742FD001027FF010000E9
:0400000508002D6161
:00000001FF
