:020000040800F2
:1000000018040020750100087F0700082D0700086C
:1000100000000000000000000000000000000000E0
:100020000000000000000000000000008B07000836
:10003000000000000000000081070008DF07000842
:10004000A1010008A1010008A1010008A101000808
:10005000A1010008A1010008A1010008A1010008F8
:10006000A1010008A1010008A1010008A1010008E8
:10007000A1010008A1010008A1010008A1010008D8
:10008000A1010008A1010008A1010008A1010008C8
:10009000A1010008A1010008A1010008A1010008B8
:1000A000A1010008A1010008A1010008A1010008A8
:1000B000A1010008A1010008A1010008A101000898
:1000C000A1010008A1010008A1010008A101000888
:1000D000A1010008A101000800000000A101000822
:1000E000A1010008A1010008A1010008A101000868
:1000F000A1010008A1010008A1010008A101000858
:10010000A1010008A1010008A101000800000000F1
:10011000000000000000000000000000A101000835
:10012000A1010008A1010008A1010008A101000827
:10013000A1010008A1010008A1010008A101000817
:10014000A1010008A1010008A1010008A101000807
:10015000A1010008A1010008A1010008A1010008F7
:100160000348854600F01EFA00480047CB0E000801
:10017000180400200B4802680B480240120C92023F
:100180000A4940F2000001C1121F002AFBD10848B1
:10019000804708480047FEE7FEE7FEE7FEE7FEE788
:1001A000FEE70000E0F7FF1F0000FFFF0000002057
:1001B000E707000861010008F0B51FB406460020FB
:1001C00082B005464024019100901BE0019922462F
:1001D0000F46304600F027FA049A059B801A994191
:1001E00010D310461946224600F00DFA361A8F41F8
:1001F0000197224601200021009F00F004FA3818E0
:100200004D4100902046641E0028DFDC019B0098D1
:100210002946324607B0F0BDF0B5074608465840BB
:1002200087B0C00F049048000E46590040084908A6
:10023000BC1A884105D2384631461E4617460B4641
:1002400002465800400810434CD0300D0390400542
:100250005900400D490D0590401A0290402872DA6D
:1002600018030121000B090508430190049800922E
:10027000002805D001995242002088410092019047
:10028000029840210A1A0199009800F0BCF905462D
:100290000C466B4607CB00F0D7F9C0197141039AA1
:1002A0000E0D0023D71756401A467A40164344D005
:1002B000049A002A2DD0029A012A039A15DC12050D
:1002C000C01A914101263605001C7141D20F059ECE
:1002D000D2070093019202962A46234600F0D4F9F1
:1002E00007B0F0BD38463146FAE71605224A0F46F8
:1002F000B218C01AB74101210905001C4F4100186E
:100300007F41114618187941E20F10436D1964417D
:1003100013E0E2076D0815436408C2071443039A0B
:1003200001261205C01A91413605001C7141CE0705
:10033000400830434908C01851412A46234600F07E
:1003400096F9CDE7FFE7049801224000C117121A81
:1003500000238B4104983146C417381AA141EEE7B7
:1003600030B40124E407634030BC55E730B40124C5
:10037000E407614030BC4FE70000E0FFF0B51FB478
:1003800088B00B990998002448400999C00F49008A
:1003900049080991C0070B990090490049080B9141
:1003A00009990898A64608431CD00B990A98084357
:1003B00018D0099801244000420D4800410D0998C9
:1003C00024050003000B204309900B980003000B49
:1003D00020430B9050181C494018002201901446ED
:1003E000104605E0002001460DB0F0BD032801DAFB
:1003F000034600E003239C46C11A0AAE0AE05F00F0
:1004000008ADED5B4F00F75B7D430027AA187C41E8
:10041000491C5B1E6145F2DD410004AB5A522104C8
:10042000120C0A43240C401C0828DFDB01980290C0
:100430000099704601910090059B049A07990698CF
:1004400000F022F9D0E700000DFCFFFFF0B50C46EC
:100450005C4085B0E40FE40703944C000026640878
:1004600059009446490802460296224321D062462A
:100470000A431ED06200570D4A000E032303550D98
:10048000012402462C492405781B1B0B360B40180F
:1004900023432643614600901C46501AB44103D3BF
:1004A0000098401C009002E0921800985B410028E0
:1004B00003DA0020014605B0F0BD00200121090546
:1004C0000746864611E064461D46141BB54106D317
:1004D0006546521BB341744607430C43A646CD07FD
:1004E00040084908284392185B4105460D43EAD16C
:1004F0001046184313D060461946504071400843D7
:1005000006D06046101AB34106D20122002306E04D
:1005100000220123DB0702E00122D243531000989E
:1005200074460105381C6141029C039D0019694114
:1005300000F09DF8BFE70000FD0300004A0009033A
:100540000123090B1B0519430A4B10B5520D9A42A2
:1005500002DA0020014610BD064B34339A4203DC18
:100560009A1A00F060F810BD034BD21800F04BF857
:1005700010BD0000FF030000CDFBFFFF10B50029F8
:1005800004DB0124E40740428C412146002B04DBBC
:100590001C460123DB075242A341994200D19042FD
:1005A00010BD0000064C0125064E05E0E36807CCAF
:1005B0002B430C3C98471034B442F7D3FFF7D4FDDB
:1005C000B8340008D834000870B50446002903D0B8
:1005D00000202022012310E0002801D00020C04389
:1005E000C046C0460DE02546D5408D4205D30D4698
:1005F0009540641B1D46954040191546521E002D1E
:10060000F1DC214670BD10B5202A04DB0146203AFA
:100610009140002010BD914020239C1A0346E340E6
:100620001943904010BD10B5202A04DB0846203A3B
:10063000D040002110BD0B46D340D0402024A21A48
:1006400091400843194610BD10B5202A06DBCB1790
:100650000846203A1041C1170B4306E00B461341F0
:10066000D0402024A21A91400843194610BD10B56D
:10067000002B08DA0024401C614192185B411A43A8
:1006800001D14008400010BDF0B51FB482B005464E
:100690000C0003D0084602F0EBF802E002F0E8F8A4
:1006A00020300246009021462846FFF7ACFF049B0D
:1006B000059A04460F4618431143084314D01846C0
:1006C00010431BD0009840210A1A18460599FFF7DD
:1006D000AAFF05460E46009A05990498FFF793FF76
:1006E000084305D0012004E02046394607B0F0BD9C
:1006F0000020C11705430E432C43374300990E9841
:100700006305401A7905E40A00220C43FD0A0A3009
:1007100002D500200146E9E70105101969410C9C4A
:100720000D9D00196941FFF7A2FFDFE7FFE7FEE734
:1007300080B501F0D5F800F0EFF900F0C1FA80BD06
:1007400080B582B000F01DF80190019858B1FFE724
:10075000FF2001F01DFE019943F29E40C0F600000B
:1007600002F076F809E0002001F012FE43F28D401D
:10077000C0F6000002F06CF8FFE702B080BD7047E1
:10078000704780B501F00FFE80BD704780B584B022
:1007900002900298401E000E18B1FFE7012003905E
:1007A0001AE00298401E4EF21401CEF200010860D9
:1007B00000200190C043032100F072F801984EF22E
:1007C0001801CEF2000108604EF21002CEF20002D3
:1007D000072111600390FFE7039804B080BD80B546
:1007E00000F00FF980BDB0B582B041F20001C4F253
:1007F00002010868012210430860FFE741F200008F
:10080000C4F2020000688007002801D4FFE7F5E782
:1008100041F20403C4F202031868032188431860FC
:1008200041F22C01C4F2020108684FF6FF72CFF6C4
:10083000FE721040086041F20004C4F20204206815
:100840004FF6FF75CFF6F26528402060186840F239
:100850000C04C8F6FF042040186018684FF6FF74B7
:10086000C7F200742040186008680F23984308609E
:1008700008681040086041F23001C4F20201002013
:100880000190086041F20801C4F20201086001F021
:100890006CFE01990120C00600F036FB02B0B0BD2D
:1008A00070B582B0024601A8027000910021405646
:1008B000002819D4FFE7002401A908570322D343D5
:1008C00018404EF20042CEF20002805809578C07C1
:1008D000E50EFF24AC40A043009CA401E4B2AC4070
:1008E0002043194088501DE001A908780F242040BA
:1008F00008380322D34318404EF61C52CEF20002B1
:100900008058002549578D07EE0EFF25B540A843B6
:10091000009DAD01EDB2B540284321400839194092
:100920008850FFE702B070BD80B588B040F2125029
:1009300000F0E0FF40F2147000F0DCFF40F20040F5
:10094000C4F60000029008220692114600F084F8D6
:10095000029806991022049200F07EF80298069BF5
:10096000022101910122039200F008F90298039AF2
:10097000069B0021059100F048F901990298039A1D
:10098000049B00F0FBF80298039A049B059900F081
:100990003CF945F20000C4F20000079001F082FE2D
:1009A0000599079801F03CFF0599079801F012FF9F
:1009B0000599079801F0E8FE0798E121490201F046
:1009C000EDFD0798042101F0F6FE0699079801F065
:1009D00018FF079801F0B1FE08B080BD81B000900B
:1009E000009840F21001C2F200010860FFE740F2F7
:1009F0001000C2F20000006808B1FFE7F7E701B09D
:100A0000704740F21000C2F20000006840B1FFE7FA
:100A100040F21001C2F200010868401E0860FFE7C2
:100A2000704780B582B00190009101A8017845F22D
:100A30000000C4F2000001F029FEFFE745F20000CB
:100A4000C4F2000040F2077101F080FE08B9FFE730
:100A5000F4E7019802B080BD86B00590049103923E
:100A60000598006A01900598406A009002A900204C
:100A70000880FFE702A8008807281DD8FFE702A822
:100A800001880398C840C00780B1FFE702A8018829
:100A900089000F228A4001999143019104990088AD
:100AA00080008140019808430190FFE7FFE702982A
:100AB000401C02A90880DDE702A908200880FFE7A2
:100AC00002A800880F281FD8FFE702A80188039812
:100AD000C840C00790B1FFE702A80188890020390B
:100AE0000F228A4000999143009104990088800068
:100AF00020388140009808430090FFE7FFE7029804
:100B0000401C02A90880DBE701980599086200985B
:100B10000599486206B0704780B588B040F2004041
:100B2000C4F6000004900421019140F200120292E8
:100B3000FFF792FF0199049840F200220792FFF715
:100B40008BFF029B0498022103910122059200F081
:100B500015F8029B049805990322069200F055F8B7
:100B600003990498059A079B00F008F804980599E2
:100B7000069A079B00F049F808B080BD87B0069040
:100B80000591049203930698006801900698C06846
:100B9000009002A900200880FFE702A800880F2823
:100BA0002BD8FFE702A801880398C840C007F0B11E
:100BB000FFE702A801884900032213468B400199F0
:100BC00099430191059B018849008B400199194384
:100BD0000191018849008A4000999143009104994C
:100BE000008840008140009808430090FFE7FFE73D
:100BF0000298401C02A90880CFE701980699086076
:100C000000980699C86007B0704710B586B0059087
:100C100004A80170039202930078012806D1FFE72F
:100C2000029A059948681043486005E0029A0599C0
:100C3000486890434860FFE705988068009001A9E4
:100C400000200880FFE701A800880F281DD8FFE7D3
:100C500001A801880298C840C00780B1FFE701A839
:100C60000188490003228A40009991430091039929
:100C7000008840008140009808430090FFE7FFE7AC
:100C80000198401C01A90880DDE70098059988605B
:100C900006B010BD83B0029001910092019840F21D
:100CA000FF3108400190009801990843029988603B
:100CB0000299886848F200021043886003B07047C8
:100CC00080B582B045F20040C4F2000001900322DA
:100CD00000230093194600F0B2F801981321362240
:100CE00000F062F8009A01988221FFF7D3FF019883
:100CF00000F012F802B080BD81B000900098406A08
:100D0000C0B201B0704782B001900091684600788F
:100D10000199886202B0704781B00090009908681C
:100D200001221043086001B0704782B00190009129
:100D3000009A0199C8691043C86102B0704783B036
:100D400001900091019880690099084204D0FFE762
:100D500002A90120087003E002A900200870FFE743
:100D600002A8007803B0704783B00290019100920E
:100D7000029948684FF60042CFF6FF721040486073
:100D8000019A0299486810434860029948684FF6F2
:100D9000FF32CFF6FF7210404860009A029948680F
:100DA0001043486003B0704783B0029001910092F5
:100DB0000299086940F2FF02CFF6FF721040086105
:100DC00002990869FF22904308610198000280B2ED
:100DD0000190684600780090019A009802430299B9
:100DE00008691043086103B0704781B00090009912
:100DF000486847F6FF72CFF6FF721040486001B0B6
:100E0000704781B000900099486848F20002104392
:100E1000486001B0704781B000900099486842F284
:100E200000021043486001B0704781B00090009903
:100E3000486844F200021043486001B0704784B033
:100E40000390029101920093039908694FF6FF7293
:100E5000C0F6FF7210400861039908694FF6FF72EF
:100E6000CFF60F7210400861039908694FF6FF72C0
:100E7000CFF6F072104008610298000702900198C6
:100E80000007000A019000980007000B0090029AEA
:100E900001980243009802430399086910430861CE
:100EA00004B0704782B001900091019948684FF6F4
:100EB000FF72CFF60072104048600098020401995A
:100EC00048681043486002B0704780B582B0002087
:100ED000019001F04EFBFFF727FDFFF729FC0A20E8
:100EE000FFF77CFDFFF72CFCFFE740F2F4100090C9
:100EF000FFF774FD0098FFF771FD43F26810C0F62C
:100F0000000001F0A5FCF0E782B00190009101988B
:100F100000994FF68072C1F6FF72114008434EF6F9
:100F20000851CEF200010860BFF34F8F02B0704746
:100F300000B5A3B022A90870002002902190209053
:100F40001F901E901D901C901B901A901990189045
:100F50001790169015901490139012901190109075
:100F60000F900E9040F20671C0F608110D9140F2FC
:100F70000121C0F203410C910B900A900991089055
:100F8000079106900591049041F20400C4F202001A
:100F900000680C2108408008209041F22C00C4F227
:100FA00002000068012149040840C00B1F902098EE
:100FB0001F990843219021980390042800D99DE0AF
:100FC00003998A0001A080188746C04600F008B83F
:100FD00000F00CB800F01AB800F00EB800F012B82B
:100FE00042F20040C0F2F4001B908DE041F200207C
:100FF000C0F27A001B9087E046F60040C0F2DC2089
:101000001B9081E047F600501B907DE041F2040008
:10101000C4F2020001683F2292041140890C13912E
:1010200000680121C9060840C00E12901298800184
:1010300013994018139013980F2804D3FFE71398BF
:10104000401C13900BE013980F2803D1FFE71020EA
:10105000139003E01398801C1390FFE7FFE741F221
:101060000400C4F202000068032109040840000CD7
:1010700011901198A0B9FFE741F22C00C4F20200D0
:1010800000680F210840401C1090109942F2004067
:10109000C0F2F400B0FBF1F1139848431B902CE030
:1010A0001198012814D1FFE741F22C00C4F202008C
:1010B00000680F210840401C1090109941F2002058
:1010C000C0F27A00B0FBF1F1139848431B9013E093
:1010D00041F22C00C4F2020000680F210840401CBD
:1010E0001090109946F60040C0F2DC20B0FBF1F100
:1010F000139848431B90FFE7FFE705E042F20040EA
:10110000C0F2F4001B90FFE741F20400C4F20200B9
:101110000168C9B209090F910F9A0AA9895C0E9159
:101120001B990E9AD1401A91016840F20072114049
:10113000090A0F910F9A08A9895C0E911A990E9AC3
:10114000D1401991006843F600010840C00A0F9091
:101150000F9906A8405C0E901A980E99C8401890F6
:1011600022A8007801900D2800D9B5E301998A00E2
:1011700001A080188746C04600F01AB800F01BB8DE
:1011800000F01CB800F01DB800F01EB800F0FBB86D
:1011900000F0E5BA00F022BB00F05FBB00F040B900
:1011A00000F093B900F0E6B900F02BBA00F07FBA76
:1011B0001B981C9091E31A981C908EE319981C9030
:1011C0008BE318981C9088E341F23000C4F20200CF
:1011D000006840F200110840884206D0FFE746F65A
:1011E0000040C0F2DC201790CAE041F20400C4F2D3
:1011F0000200006880B2800B1E9041F23000C4F201
:1012000002000068800F1D901E980090032800D9EE
:10121000B4E000998A0001A08018874600F006B863
:1012200000F02EB800F056B800F080B81D9820B934
:10123000FFE718984008179021E01D98012806D173
:10124000FFE718980A21B0FBF1F0179016E01D98FF
:10125000022806D1FFE71A980321B0FBF1F017909E
:101260000BE01D98032806D1FFE71A980B21B0FB6D
:10127000F1F0179000E0FFE7FFE7FFE7FFE77EE010
:101280001D9820B9FFE718988008179021E01D9855
:10129000012806D1FFE718980C21B0FBF1F0179058
:1012A00016E01D98022806D1FFE71A980521B0FB29
:1012B000F1F017900BE01D98032806D1FFE71A986C
:1012C0000D21B0FBF1F0179000E0FFE7FFE7FFE72B
:1012D000FFE754E01D9830B9FFE718980621B0FBEE
:1012E000F1F0179021E01D98012806D1FFE718982A
:1012F0000E21B0FBF1F0179016E01D98022806D1E0
:10130000FFE71A980721B0FBF1F017900BE01D984A
:10131000032806D1FFE71A980F21B0FBF1F01790D0
:1013200000E0FFE7FFE7FFE7FFE728E01D9820B9AF
:10133000FFE71898C00817901FE01D98012804D1F6
:10134000FFE718980009179016E01D98022806D1AB
:10135000FFE71A980921B0FBF1F017900BE01D98F8
:10136000032806D1FFE71A981121B0FBF1F017907E
:1013700000E0FFE7FFE7FFE7FFE700E0FFE7FFE749
:1013800017981C90A9E241F23000C4F202000068F4
:10139000800718B9FFE7189816903EE041F2300038
:1013A000C4F20200006803210840012803D1FFE7CE
:1013B0001B98169030E041F23000C4F20200006841
:1013C00003210840022804D1FFE748F200001690EC
:1013D00021E041F23000C4F202000068032108401D
:1013E000032816D1FFE741F23000C4F20200006882
:1013F000072189040840800C0F900F9904A8405CD5
:101400000E900E9942F20040C0F2F400C8401690CF
:1014100000E0FFE7FFE7FFE7FFE716981C905CE2BC
:1014200041F23000C4F2020000688003800F18B956
:10143000FFE71998169045E041F23000C4F202002F
:10144000006803210904084001210904884203D1EE
:10145000FFE71B98169034E041F23000C4F202001E
:10146000006803210904084001214904884204D18D
:10147000FFE748F20000169022E041F23000C4F28B
:1014800002000068032109040840884216D1FFE7E2
:1014900041F23000C4F202000068072189040840CC
:1014A000800C0F900F9904A8405C0E900E9942F2A8
:1014B0000040C0F2F400C840169000E0FFE7FFE7EC
:1014C000FFE7FFE716981C9007E241F23000C4F2F4
:1014D00002000068C004800F18B9FFE71998169041
:1014E00045E041F23000C4F20200006841F600011C
:1014F000084040F60001884203D1FFE71B98169090
:1015000034E041F23000C4F20200006841F600010C
:10151000084041F20001884204D1FFE748F2000090
:10152000169022E041F23000C4F20200006841F659
:1015300000010840884216D1FFE741F23000C4F2B2
:1015400002000068072189040840800C0F900F9961
:1015500004A8405C0E900E9942F20040C0F2F400E4
:10156000C840169000E0FFE7FFE7FFE7FFE71698A7
:101570001C90B2E141F23000C4F202000068002089
:1015800018B9FFE71998169038E041F23000C4F21C
:1015900002000068012018B9FFE71B9816902CE0A4
:1015A00041F23000C4F202000068012020B9FFE7D8
:1015B00048F2000016901FE041F23000C4F2020031
:1015C00000680120B0B9FFE741F23000C4F2020028
:1015D0000068072189040840800C0F900F9904A827
:1015E000405C0E900E9942F20040C0F2F400C840F8
:1015F000169000E0FFE7FFE7FFE7FFE716981C9073
:101600006BE141F23000C4F2020000684005800F37
:1016100018B9FFE71998159046E041F23000C4F27E
:101620000200006840F20061084040F20021884258
:1016300004D1FFE747F60050159034E041F2300046
:10164000C4F20200006840F20061084040F200412C
:10165000884204D1FFE748F20000159022E041F2F1
:101660003000C4F20200006840F200610840884285
:1016700016D1FFE741F23000C4F2020000680721F2
:1016800089040840800C0F900F9904A8405C0E90CC
:101690000E9942F20040C0F2F400C840159000E0FC
:1016A000FFE7FFE7FFE7FFE715981C9015E141F220
:1016B0003000C4F2020000684002800F18B9FFE752
:1016C0001998159048E041F23000C4F20200006819
:1016D00003214905084040F20021884204D1FFE778
:1016E00047F60050159036E041F23000C4F2020097
:1016F000006803214905084040F20041884204D1B6
:10170000FFE748F20000159024E041F23000C4F2F7
:101710000200006803214905084040F20061884248
:1017200016D1FFE741F23000C4F202000068072141
:1017300089040840800C0F900F9904A8405C0E901B
:101740000E9942F20040C0F2F400C840159000E04B
:10175000FFE7FFE7FFE7FFE715981C90BDE041F2C8
:101760003000C4F2020000680007800F18B9FFE7DC
:10177000199814902FE041F23000C4F20200006882
:101780000C210840042803D1FFE71B98149021E0A6
:1017900041F23000C4F2020000680C210840082821
:1017A00016D1FFE741F23000C4F2020000680721C1
:1017B00089040840800C0F900F9904A8405C0E909B
:1017C0000E9942F20040C0F2F400C840149000E0CC
:1017D000FFE7FFE7FFE714981C907EE041F230003E
:1017E000C4F2020000688006800F18B9FFE719985C
:1017F00014902FE041F23000C4F202000068302162
:101800000840042803D1FFE71B98149021E041F21F
:101810003000C4F20200006830210840082816D1C8
:10182000FFE741F23000C4F202000068072189049A
:101830000840800C0F900F9904A8405C0E900E9900
:1018400042F20040C0F2F400C840149000E0FFE70C
:10185000FFE7FFE714981C903FE041F23000C4F22C
:10186000020000680006800F18B9FFE7199814906D
:101870002FE041F23000C4F202000068C0210840AD
:10188000042803D1FFE71B98149021E041F23000B7
:10189000C4F202000068C0210840082816D1FFE702
:1018A00041F23000C4F202000068072189040840B8
:1018B000800C0F900F9904A8405C0E900E9942F294
:1018C0000040C0F2F400C840149000E0FFE7FFE7DA
:1018D000FFE714981C9000E0FFE71C9823B000BDC0
:1018E00080B540F2125000F005F840F2157000F09B
:1018F00001F880BD81B001466846018000881F2242
:101900000146114001238B40810941F20002C4F2DB
:10191000020288581843885001B0704781B00146D0
:101920006846018000881F220146114001238B4038
:10193000810941F20002C4F202028858984388509B
:1019400001B0704781B001466846018000881F22BF
:101950000146114001238B40810941F20002C4F28B
:10196000020288581843885001B0704780B586B08D
:10197000009101460098049103A9088002A80190F3
:1019800002700498098800F012F8019909788842D9
:1019900004D0FFE705A9FF20087003E005A9002097
:1019A0000870FFE7002105A8405606B080BD85B04D
:1019B000049003A8018001A9FF20087002A900205B
:1019C0000880FFE702A8008803A9098888422FDA67
:1019D000FFE7049802A90988415C0198484001A9E1
:1019E0000870694608200870FFE7684600780128FB
:1019F00018DBFFE701A800780006002807D5FFE7FD
:101A0000019840003121484001A9087004E0019884
:101A1000400001A90870FFE7FFE70098401E6946F3
:101A20000870E2E7FFE70298401C02A90880C9E7B6
:101A300001A8007805B0704780B594B013AB18705A
:101A4000129111A8028010AA002111700F910EAA04
:101A50001170018845F20040C4F20000FFF722FA3D
:101A6000FFE70EA8007800B177E110A800780D908C
:101A7000052800D962E10D998A0001A080188746E7
:101A800000F00AB800F04AB800F058B900F07CB88D
:101A900000F054B900F010B9FFE745F20040C4F27D
:101AA000000048F20001FFF74AF9014600200C90BF
:101AB00069B1FFE70F980109012000220A927D29F0
:101AC0000B9001D30A980B900B980C90FFE70C98A1
:101AD000C00720B1FFE70F98401C0F90DDE70F987B
:101AE00000097C280CD8FFE745F20040C4F2000052
:101AF000FFF791F900200F9010A9012008700CE069
:101B000000200F9010A9087043F2A020C0F600003A
:101B100040F2702100F09CFEFFE71DE1FFE745F277
:101B20000040C4F200000121FFF709F9014600203E
:101B3000099069B9FFE70F98010901200022079277
:101B40007D29089001D30798089008980990FFE72D
:101B50000998C00720B1FFE70F98401C0F90DEE7FF
:101B60000F9800097C280ED8FFE713A800784000E2
:101B7000411C45F20040C4F20000FFF7C4F810A970
:101B800003200870FFE7E7E045F20040C4F20000E0
:101B90000690FFF72AF9069813A9097840F2004247
:101BA000FFF7E2F8FFE711A8008870B3FFE711A87C
:101BB0000088012807D1FFE745F20040C4F2000089
:101BC000FFF71FF9FFE745F20040C4F200000421CF
:101BD000FFF7B5F8C0B1FFE745F20040C4F20000DE
:101BE000FFF78AF8129908701298401C1290119809
:101BF000401E11A908801298017843F2C830C0F63F
:101C0000000000F025FEFFE7CDE743F23230C0F6DA
:101C10000000039000F01CFE45F20040C4F20000FA
:101C2000059004210491FFF78AF8014643F2A2309F
:101C3000C0F6000000F00CFE05981021FFF77FF8B9
:101C4000014643F2DF10C0F6000000F001FE0598E7
:101C50000221FFF774F8014643F2A710C0F6000016
:101C600000F0F6FD05980121FFF769F8014643F2FF
:101C70009810C0F6000000F0EBFD05980821FFF772
:101C80005EF8014643F28510C0F6000000F0E0FD6A
:101C9000039800F0DDFD0499059810AB05221A7039
:101CA00000220F92FFF74BF8014643F21E20C0F6C8
:101CB000000000F0CDFD4FE0FFE745F20040C4F228
:101CC00000002021FFF73BF801460020029069B98F
:101CD000FFE70F9801090120002200927D29019061
:101CE00001D30098019001980290FFE70298C00785
:101CF00020B1FFE70F98401C0F90DEE70F98000916
:101D00007C280FD8FFE745F20040C4F200002021F4
:101D1000FFF70BF800200F9010A9012008700EA902
:101D200008700AE000200F9010A9087043F23F40AD
:101D3000C0F6000000F08CFDFFE70DE010A90020C8
:101D400008700EAA012111700F9043F21740C0F6DF
:101D5000000000F07DFDFFE783E610A8007814B0D6
:101D600080BD000080B598B017AB11931870169124
:101D700015A8028014A900201090087013A90880EB
:101D800012A9087045F20040C4F200000F90102123
:101D9000FFF788F80F98109A119909784900FEF713
:101DA000E3FF11980078410043F2FA30C0F60000DA
:101DB00000F04EFDFFE712A8007800B1A5E114A8DD
:101DC0000D90017843F28830C0F6000000F040FD2D
:101DD0000D9800780E90052800D986E10E998A00AA
:101DE00001A080188746C04600F00AB800F05CB831
:101DF00000F07BB900F0A1B800F077B900F018B995
:101E000045F21841C4F2000108680122104308603D
:101E1000FFE745F20040C4F2000048F20001FEF77F
:101E20008EFF014600200C9079B1FFE713A80188CE
:101E300040F2D072012000230A9391420B9001DB03
:101E40000A980B900B980C90FFE70C98C00728B1EC
:101E5000FFE71398401C13A90880DAE713A800884D
:101E600040F2CF7188420DDCFFE745F20040C4F23A
:101E70000000FEF7D0FF13A90020088014A901205C
:101E8000087010E013A90020088014A9087012A996
:101E90000120087043F26430C0F6000040F2A31144
:101EA00000F0D6FCFFE72FE1FFE745F20040C4F267
:101EB00000000121FEF743FF01460020099079B997
:101EC000FFE713A8018840F2D07201200023079396
:101ED0009142089001DB0798089008980990FFE765
:101EE0000998C00728B1FFE71398401C13A9088080
:101EF000DBE713A8008840F2CF71884210DCFFE7CF
:101F000013A90020088017A80078410045F200407E
:101F1000C4F20000FEF7F7FE14A9032008700BE0DE
:101F200013A90020088014A9087043F2F420C0F619
:101F3000000000F08DFCFFE7E6E045F20040C4F24F
:101F4000000006900221FEF7FAFE014643F2A710B8
:101F5000C0F6000000F07CFC06980121FEF7EFFEC1
:101F6000014643F29810C0F6000000F071FC06989C
:101F70001021FEF7E4FE014643F2DF10C0F6000038
:101F800000F066FCFFE745F20040C4F200000121CA
:101F9000FEF7D5FE01460020059079B9FFE713A8AA
:101FA000018840F2D07201200023039391420490F3
:101FB00001DB0398049004980590FFE70598C0079B
:101FC00028B1FFE71398401C13A90880DBE713A88A
:101FD000008840F2CF7188420FDCFFE713A9002090
:101FE00008801698017845F20040C4F20000FEF720
:101FF0008AFE14A9052008700BE013A900200880B0
:1020000014A9087043F2EE10C0F6000000F020FCA6
:10201000FFE745F20040C4F200001021FEF78FFEFA
:10202000014643F2B510C0F6000000F011FC6BE071
:1020300045F20040C4F20000FEF7F7FEFFE745F26C
:102040000040C4F200002021FEF779FE0146002086
:10205000029079B9FFE713A8018840F2D0720120FD
:10206000002300939142019001DB009801900198B8
:102070000290FFE70298C00728B1FFE71398401CC1
:1020800013A90880DBE713A8008840F2CF718842CB
:1020900010DCFFE713A90020088014A901200870B4
:1020A00012A9087045F20040C4F200002021FEF79A
:1020B0003CFE0BE013A90020088014A9087043F22D
:1020C000BE20C0F6000000F0C3FBFFE745F2004071
:1020D000C4F200001021FEF732FE014643F2CA109E
:1020E000C0F6000000F0B4FB0EE014A90020087058
:1020F00012AA0121117013A9088043F27520C0F6BD
:10210000000000F0A5FBFFE755E614A8007818B022
:1021100080BD80B588B001920A460199034606A8A1
:102120000370059204AA118003AB0293FF2119707A
:10213000007805991288FFF77FFC0146029801702C
:10214000017843F2B030C0F6000000F081FB029845
:102150000078012804D0FFE707A9FF20087003E0FA
:1021600007A900200870FFE7002107A8405608B023
:1021700080BD80B588B000920A460099034606A843
:102180000370059204AA118000780599128800F066
:1021900034F8014603A801800021405E20B1FFE72A
:1021A000039807A9088023E002A900200870FFE730
:1021B00002A8007804A90988884215DAFFE7059883
:1021C00002AA11784900401801900199087800028C
:1021D000497840180599127852008852FFE7029812
:1021E000401C02A90870E3E707A900200880FFE768
:1021F000002107A8405E08B080BDB0B59CB0034682
:102200001AA80370199118A90A80189A032151433A
:1022100014AA118004A90391007803991288FFF78A
:1022200078FF014617A801800021405E28B1FFE732
:102230001BA94FF6FD70088048E016A90020088011
:1022400015A90880FFE716A8008814A90988884204
:1022500038DAFFE7039816A9098840188278022126
:10226000FFF784FB014617A802900180002101912D
:10227000415E43F27510C0F6000000F0E9FA0199E2
:102280000298405E28B1FFE71BA94FF6FC7008805A
:102290001CE0039916A80288895C199A15AC23885A
:1022A0005D1C2580D1540399008840184078199905
:1022B0002288531C23808854FFE71698C01C16A957
:1022C0000880C0E71BA900200880FFE700211BA8A9
:1022D000405E1CB0B0BD80B58AB001920A4601993B
:1022E000034608A802900370079206AA0392118081
:1022F00005AB0493FF211970007807991288FFF746
:1023000031FD0299049B024603981A700978079AD6
:102310001278038843F23A20C0F6000000F098FAE1
:102320000498007801280CD0FFE705A8017843F253
:10233000E230C0F6000000F08BFA09A9FF20087017
:1023400003E009A900200870FFE7002109A8405612
:102350000AB080BD80B582B00190019947F6D500E2
:10236000C2F2E96048430321C84148F63711C0F280
:10237000410188420AD8FFE7019840F2E831B0FBFA
:10238000F1F000900098FEF729FBFFE702B080BD56
:1023900081B069460870009840F20801C2F200015D
:1023A000087001B0704780B582B001A800F002F853
:1023B00002B080BD80B588B0069005A9892008705C
:1023C00044200122FFF787FF014604A80290018004
:1023D00000210191415E43F26E40C0F6000000F022
:1023E00037FA01990298405E002805D5FFE707A952
:1023F0004FF6FE70088016E040F2E830FFF7AAFFC3
:10240000442003A900910222FFF7B3FE009904AA19
:1024100010800398000449884018069908600498C1
:1024200007A90880FFE7002107A8405E08B080BD2B
:1024300085B000200490039041F20002C4F2020231
:10244000116801231B04194311600290FFE70298F1
:10245000400B28B9FFE7FFE70298401C0290F6E71F
:10246000FFE70498401C049041F20000C4F202000F
:1024700000680121490408400390FFE70399002008
:10248000019041B9FFE704984FF6FF71401A411ED1
:1024900088410190FFE70198C0070028E1D1FFE7DC
:1024A00041F20000C4F2020000688003002802D458
:1024B000FFE7FFE7FEE742F20001C4F2020108680D
:1024C0000222104305229043086041F20401C4F245
:1024D000020100910868086008680860086840F216
:1024E00000421043086041F22C02C4F2020210685C
:1024F0000F239843106008684FF6FF72C7F600720A
:10250000104008600868192212041043086041F264
:102510000001C4F20201086801221206104308609B
:10252000FFE741F20000C4F20200006880010028C9
:1025300001D4FFE7F5E741F20401C4F202010868A3
:102540000322904308600868022210430860FFE7F6
:1025500041F20400C4F2020000680C21084008287F
:1025600001D0FFE7F4E705B0704780B5FFF760FFE3
:1025700080BD80B540F20400C2F20000006840F265
:10258000E831B0FBF1F0FEF701F910B1FFE7FFE72A
:10259000FEE70021C843FEF783F980BD80B588B00F
:1025A00007900691002005900490039002900798F0
:1025B000019044F20041C4F2000188421DD0FFE7BF
:1025C000019844F60041C4F2000188421AD0FFE7A6
:1025D000019845F20001C4F20001884217D0FFE7DC
:1025E000019843F60001C4F20101884214D1FFE7CB
:1025F0000520FEF79DFC05900FE00920FEF798FCF2
:1026000005900AE00220FEF793FC059005E0022009
:10261000FEF78EFC059000E0FFE7079800680004D5
:10262000002819D5FFE70598400006994A08801848
:10263000B0FBF1F0029002984FF6F0710840049060
:1026400002980007400F039004A8008803A9098896
:1026500008430799C86017E0059806994A0880184A
:10266000B0FBF1F0029002984FF6F0710840049030
:1026700002980F210840039004A8008803A9098844
:1026800008430799C860FFE708B080BD82B0019099
:1026900068460180008840F2FF1108400199886275
:1026A00002B0704780B586B005900598049044F25A
:1026B0000041C4F20001884221D0FFE7049844F6AB
:1026C0000041C4F20001884222D0FFE7049845F29D
:1026D0000001C4F20001884223D0FFE7049843F6CA
:1026E0000001C4F20101884224D1FFE740F20E301C
:1026F0000390FFF727F90398FFF710F91BE040F26A
:1027000011400290FFF71EF90298FFF707F912E057
:1027100040F213400190FFF715F90198FFF7FEF81A
:1027200009E040F214400090FFF70CF90098FFF721
:10273000F5F800E0FFE706B080BD81B00090009999
:10274000086801221043086001B0704784B000910E
:1027500001460098029101A9088002980A8892090E
:10276000805809881F221140C840C00720B1FFE7E8
:1027700003A90120087003E003A900200870FFE707
:1027800003A8007804B0704782B0019000910199CD
:102790000868012290430860019908684FF6FF120B
:1027A000CFF6FF7210400860009A01990868104344
:1027B000086002B0704782B00190009101990868EA
:1027C000042290430860009A019908681043086049
:1027D00002B0704782B0019000910199086801220F
:1027E00090430860019948684CF6FF72CFF6FF727B
:1027F00010404860009A019948681043486002B050
:10280000704782B0019000910199086808229043B6
:102810000860009A019908681043086002B0704788
:1028200082B00190009101990868012290430860EC
:10283000019908684EF6FF72CFF6FF7210400860EB
:10284000009A019908681043086002B070470000C0
:102850000FB410B503A9044B044A029800F0E8F83D
:1028600010BC08BC04B01847230A00080000002070
:102870002021020C01D010211046020A01D010467E
:102880000839020901D01046091F820801D01046FC
:10289000891E420801D0881E7047081A704702E05E
:1028A00008C8121F08C1002AFAD1704770470020DB
:1028B00001E001C1121F002AFBD17047F0B51FB41F
:1028C00086B00998089A030D0021024314D051489C
:1028D000514A1818504305141198012810981AD01D
:1028E000281A401C00264D4F4D4900960191049036
:1028F000002812DA444211E01198012449A301286A
:1029000001D11098C1430698119A84600360C26097
:1029100041600BB0F0BD4042E4E7044621050020D1
:102920003F4A001C51410391029012E0E00707D09A
:1029300032463B4601990098FDF720FD0191009039
:1029400032463B4610461946FDF718FD06460F462F
:102950006410002CEAD10498039B0028029A09997C
:10296000089806DAFDF70AFD019B009AFDF706FDBF
:1029700005E0FDF76BFD019B009AFDF767FD04463E
:102980000E460022284BFDF7F9FD03D80020C04376
:10299000014607E00022254B20463146FDF73CFC6E
:1029A000FDF7CCFD102409E0002C0ADB0A220023ED
:1029B000FDF702FC079B30321A55641E02460A439B
:1029C000F2D11122641C079B121B1C19119B012BB5
:1029D00003D0012308430ED10AE0084304D011209C
:1029E00010900020119077E71098151A6D1E0BE0DB
:1029F0001098824202DD00236D1C03E0824201DA5E
:102A000000236D1E002BEED0069811998260C160E4
:102A100030C07EE701FCFFFF104D000000001440B5
:102A20000000F03F300000000000F0430000E03FF5
:102A3000FFB597B00646002518E2252877D1002477
:102A40002746FD49049400E00443761C32780120B7
:102A5000203A90400842F7D130782A280ED002223E
:102A6000307801463039092916D804990A23594388
:102A7000303940181443761C0490F1E7189802C8C6
:102A800004911890002904DA0120400304434842CD
:102A9000049002200443761C30782E2814D10420A0
:102AA00004437078761C2A2809D11898761C80C8AF
:102AB000189009E00A214F43303FC719761C30783F
:102AC000014630390929F5D930786C2810D006DC58
:102AD0004C281AD068280ED06A2817D104E0742830
:102AE00013D07A2812D110E00120400504430CE0F5
:102AF0000121090501E0032109050C437178814298
:102B000003D1012000052418761C761C3078119022
:102B100066280BD013DC58287DD009DC00287BD038
:102B20004528F6D04628F4D047281AD1A5E118E068
:102B3000632835D0642870D0652812D19DE17028B3
:102B40006CD008DC6728F1D069287BD06E280DD0C6
:102B50006F2806D1BAE073282ED0752871D0782856
:102B600059D01A9A199990476D1C7EE16002400F66
:102B7000022809D003280DD00428189801680DD028
:102B80000D60001D189070E11898EA1701680D603B
:102B90004A60F6E7189801680D80F2E70D70F0E7DB
:102BA00018986A4601781172001D18900020507222
:102BB00002A80090012005E0189802C81890002093
:102BC0000091C04361070DD5002101E00199491C26
:102BD0000191B94212DA8142F8DB009A515C002976
:102BE000F4D10BE0002101E00199491C01918142DF
:102BF000FADB019A0099895C0029F5D101990498C2
:102C00001A9B471A21463846199A00F097FA0199FB
:102C1000401945180BE04FE02CE113E04EE000981E
:102C200000990078491C00911A9A199990470198C7
:102C3000401E0190401CF2D1214638461A9B199A39
:102C400010E137E00A200021009001916002410F5D
:102C5000022907D0189A01CA1892C217944603296C
:102C600008D00AE01898C01DC108C90005C918910C
:102C7000944607E000B2C2179446042902D140B23C
:102C8000C1178C4600226146944506DA0A460021A7
:102C9000404291418C462D2102E0210504D52B2193
:102CA0006A461173012103E0E10701D02021F7E713
:102CB000029155E00A200AE0102008E01020009060
:102CC0000021042004430191082703E0082000218B
:102CD000019100906002410F022907D0189A01CAA1
:102CE000189200229446032908D008E01898C01DC5
:102CF000C108C90005C91891944603E080B20429AF
:102D000000D1C0B200210291210729D51199702963
:102D100006D0009A1021019B4A401A4305D00EE0CC
:102D200040216A461173012108E06146014306D043
:102D300030216A4611731199517302210291009A50
:102D40000821019B4A401A430AD16146014301D13F
:102D5000610705D530216A46117301217F1E02915A
:102D60001199582904D035A10E910DA90D910DE0AE
:102D700037A1F9E76146019B009AFDF71DFA0E9B0A
:102D80008C469B5C0D9A521E0D9213706146014356
:102D9000F0D10D9805A9081A20300190600703D5DD
:102DA00001200004844300E001270198874201DDEF
:102DB000381A00E000200199009041180298091883
:102DC0000498401A0490E00306D421461A9B199AED
:102DD000049800F0B3F94519002706E003A81A9AF1
:102DE000C05D199990476D1C7F1C02988742F5DBE6
:102DF000E0030CD521461A9B199A049800F09EF91D
:102E0000451904E01A9A3020199990476D1C0099D1
:102E1000481E00900029F5DC08E00D980D99007817
:102E2000491C0D911A9A199990476D1C0199481ED9
:102E300001900029F1DC63E10928010030313233CF
:102E400034353637383961626364656600000000E6
:102E500030313233343536373839414243444546D0
:102E60000000000000F05AF94519761C307800285F
:102E700000D0E2E528461BB0F0BD600700D406276D
:102E80001898C01DC108C90048680A680831C30FF6
:102E9000DB071891190001D09CA108E0210501D59C
:102EA0009BA104E0E10701D09AA100E09AA14300B0
:102EB00011985B08109165280CD006DC452809D0D4
:102EC00046281DD0472841D141E0662818D0672800
:102ED0003CD13CE00021112F01DB112000E0781CE7
:102EE0000191009008A911A8FFF7E8FC139905913A
:102EF0000021119A15927F1C12980197009150E0C1
:102F00000120C00703900120019008A9009711A893
:102F1000FFF7D4FC139A149905920022119B00929A
:102F200012981593059A0192002901D0104602E0EB
:102F3000791C40180190381A01D5019804E04042EC
:102F4000401E0090781C0190C01B029043E0012FAE
:102F500000DA01270021112F01DD112000E03846A1
:102F60000191009008A911A8FFF7A8FC13990591F9
:102F7000119A0021129815920091019721070CD403
:102F80000599B94201DB019900E00191012904DDB5
:102F9000159A491E515C302906D0B84201DA011D4C
:102FA00005DA0121029115E00199491EEDE700289B
:102FB00005DC0099411800910199091A03E0019A72
:102FC000411C914200DD01910099401A401C029081
:102FD0000120C0070390200706D40299019881427E
:102FE00002DB0020C043029000206946C87707AF8B
:102FF000012103980337C907884224D00220119089
:103000002B201290039800280CDA404203902D20C8
:10301000129007E00A210398FDF7D6FA30317F1E9F
:10302000039039701199481E11900029F2DC039821
:103030000028EFD1791E12980870307820210840BE
:103040004530BF1E387006A8C01BC01D03901098E5
:103050000078002800D00120019941180298C0177B
:103060000918039809180498401A401E0490E003B8
:1030700006D421461A9B199A049800F05FF8451966
:1030800010980078002803D01A9A199990476D1C5F
:10309000E00324D521461A9B199A049800F04EF8B3
:1030A00045191CE00098002807DB00990598884224
:1030B00003DD1598405C199901E0199930201A9A9E
:1030C000904700986D1C401C00900298401E029092
:1030D000002804D11A9A2E20199990476D1C019945
:1030E000481E01900029DDDC05E038781A9A7F1C23
:1030F000199990476D1C0399481E03900029F4DC30
:1031000021461A9B199A0498ACE600002D00000095
:103110002B0000002000000000000000F8B504466D
:1031200000251E461746880404D405E039462020B1
:10313000B0476D1C641EF9D52846F8BDFFB504469E
:10314000002581B01E46C80301D5302700E02027A6
:10315000880404D505E038460399B0476D1C641E09
:10316000F9D5284605B0F0BD2D2D2D746573742D4D
:103170002D2D0D0A00636865636B5F6372633A25EA
:1031800064200D0A006932632041444453454E4493
:103190003A256421200D0A00693263205442453AE1
:1031A000256421200D0A006932632054493A2564C0
:1031B00021200D0A006932635F7374657032204EFE
:1031C000434B3A256421200D0A006932635F737412
:1031D000657033204E434B3A256421200D0A006967
:1031E0003263204E434B3A256421200D0A00693298
:1031F00063206D61737465722073656E64732064FF
:103200006174612074696D656F757420696E20202A
:1032100077726974654279746521200D0A006932FC
:1032200063207472616E736D697420636F6D706C6E
:10323000657465202564200D0A0073656E736972DC
:10324000696F6E5F6932635F68616C5F7772697422
:10325000652C616464726573733A307825782C64E8
:103260006174613A307825782C636F756E743A25F5
:1032700064200D0A00693263206D617374657220E9
:1032800073656E6473207374617274207369676E02
:10329000616C20696E20205752495445210D0A0067
:1032A00069326320627573206973206275737920B7
:1032B000696E20726561645F2564210D0A006932C0
:1032C00063206D61737465722073656E647320731F
:1032D000746F70207369676E616C2074696D656FBF
:1032E000757420696E2020777269746542797465FF
:1032F000210D0A00693263206D6173746572207359
:10330000656E647320277320696E7465726E616CDC
:1033100020616464726573732074696D656F757480
:1033200020696E2020777269746542797465210D79
:103330000A002A2A2A2A2A2A2A2A2A2A2A2A2A2A37
:103340002A2A2A2A2A2A2A2A2A2A2A2A2A2A2A2ADD
:103350002A2A2A2A2A2A2A2A2A2A2A2A2A2A2A2ACD
:103360002A0D0A0069326320627573206973206236
:1033700075737920696E202077726974654279745B
:1033800065212025640D0A0049494320777269743C
:1033900065427974652C73746174653A2025640DF7
:1033A0000A006932632052424E453A25640D0A00F4
:1033B00073656E736972696F6E5F6932635F7265A0
:1033C00061643A25640D0A006932635F6461746167
:1033D0005F7265636569766520696E673A25640D7D
:1033E0000A006932635F57726974654279746520B7
:1033F0004661696C3A25640D0A006932635F6D614C
:10340000737465725F61646472657373696E673A41
:10341000307825780D0A00693263206D6173746518
:10342000722073656E6473207374617274207369A3
:10343000676E616C20696E2072656164210A0069A3
:103440003263206D61737465722073656E647320DE
:1034500073746F70207369676E616C2074696D6539
:103460006F757420696E2072656164210A0072654F
:1034700061645F73657269616C2C6932635F777236
:103480006974652C7265743A25640D0A00496E6989
:10349000745F53485434582C204F4B0D0A00496E2A
:1034A00069745F53485434582C204661696C6564D4
:1034B0003A25640D0A000000D834000800000020FE
:1034C000100000009E280008E834000810000020CA
:1034D00008040000AE280008000000000090D0039F
:0834E000FF00000000000000E5
:04000005080001618D
:00000001FF
